:1000000046C082C05FC05EC05DC05CC05BC05AC0FD
:1000100059C058C057C056C055C054C053C000CD79
:10002000D914F13C28E5A16C78B5509D89441A0398
:10003000540069006C006C002000480061007200F0
:100040006200610075006D001A03690032006300F0
:100050002D00740069006E0079002D00750073009A
:10006000620012011001FF000008030431C60502FE
:1000700001020001090212000101008005090400CB
:100080000000FF000000040309040100FF8E11249A
:100090001FBECFE5D1E0DEBFCDBF10E0A0E6B0E0EF
:1000A000E2E2F9E002C005900D92A636B107D9F759
:1000B00010E0A6E6B0E001C01D92A639B107E1F755
:1000C000ECD22DC49DCFDC019FEF8FEF660FB9F00E
:1000D0004EE1F0E0229560FF2D91E82FE227EF70CE
:1000E000929582958F70392F307F832B9F70E40F0C
:1000F000359193273170932783276A9559F7809517
:1001000090958D939D9308950F931F932F93DF9355
:10011000CF930FB70F93B299FECFB2990BC0B2999C
:1001200009C0B29907C0B29905C0B29903C000E4F2
:100130000ABFA8C0C0917E00DD27C158DF4F0BE089
:1001400015E024E0B29BE9CF3F934F936F9366B3E2
:1001500030E803C066B3432B4993442765702627D4
:10016000215026B32570A9F137953C3FA0F56227B1
:10017000615066B3657037953C3F98F5262721504E
:10018000379526B325703C3F90F56227615037952F
:100190003C3F66B36570A0F52627215037953C3F5C
:1001A000C8F526B325706227615037953C3FB0F5FE
:1001B0000A9566B37AF065702627215037953C3F43
:1001C00088F526B325706227615037953C3F10F2C1
:1001D0002DC031C048C0612726B325703F774160EC
:1001E000C6CF3F77426066B365702127C7CF3F77A0
:1001F0004460612726B32570622761503795C8CFC8
:100200003F7748602127316066B36570262721500B
:100210003795C6CF3F7740616127C1CF3F774062B6
:100220002127C4CF3F7740646127C9CF3F7740681B
:10023000212700C08FCF30E43ABF0B500195033027
:1002400090F0C01B2881233C91F12B3481F119815E
:100250001F7740919500141731F42936D9F02D32CB
:1002600049F0213E39F04427409366006F914F9149
:100270003F9108C0209366006F914F913F910AB75C
:1002800006FD49CF0F910FBFCF91DF912F911F91A5
:100290000F911895009170000023F1F040917D00BE
:1002A0004423D1F440937000C1E7D0E018C02091FE
:1002B00066002223C1F240917D00442369F400933B
:1002C0007D0020937C0000917E004BE0401B40931A
:1002D0007E00C0E6D0E002C0C1E6D0E001E028B375
:1002E0002A7F216017B3156028BB17BB15E030E8E3
:1002F00030FF212728BB379547954C3FC0F530FF8D
:100300002127379528BB47954C3FA8F530FF21277B
:100310003795000028BB47954C3F78F530FF2127E3
:100320003795000028BB47954C3F48F530FF212703
:10033000699128BB379547954C3F18F530FF212729
:10034000379528BB47954C3F00F530FF212737955F
:10035000479528BB4C3FD8F430FF21273795362FDF
:10036000479528BB4C3FA8F40A9512F614C02127E4
:10037000442728BBC2CF2127C5CF2127CBCF212798
:10038000D1CF2127442728BBD7CF2127DACF212758
:10039000DFCF2127E5CF2A7F28BB6F914F913F9177
:1003A00000E40ABFDF91CF9117B3022F216028BB71
:1003B0001A7FDFBFDF912F91000017BB08BB1F9191
:1003C0000F91189585B7836085BF8BB780648BBF0D
:1003D000789408951F93CF93DF9360917D006623F7
:1003E00009F477C080917E00CCE0D0E0C81BD10931
:1003F000C158DF4F81E08093670080917C008D328F
:1004000009F059C01E818F8181111FEF888180768C
:1004100009F041C08981882321F41882198292E071
:1004200042C0853021F48A8180936B00BAC0863047
:1004300039F582E0809367008B81813021F492E16D
:10044000C2E6D0E030C0823021F492E1C4E7D0E0CF
:100450002AC0833009F0A5C08A81882321F494E062
:10046000C6E8D0E020C0813021F49AE1CEE2D0E0AD
:100470001AC0823009F095C09AE1C8E4D0E013C0F8
:10048000883019F481E0888304C08A3009F089C07B
:10049000188291E008C0CE01ACD1982F8F3F19F49B
:1004A00083E080936700191708F0192FD0936A0032
:1004B000C093690005C0635011F0CE0111D110E066
:1004C0001093680083EC809371001092700010927A
:1004D0007D0080917000882309F053C0209167004F
:1004E000222309F44AC08091710098E889278093FB
:1004F000710010916800193010F018E002C011234B
:1005000079F1233031F482E790E0612F27D1182F61
:1005100022C03091690040916A00213061F4832F3C
:10052000942FFC01A2E7B0E081918D938E2F831B65
:100530008117D0F30CC0832F942FFC01A2E7B0E009
:10054000849131968D938E2F831B8117C8F3F0937E
:100550006A00E093690080916800811B80936800C5
:1005600082E790E0612FAFDD1D5F109370001350A4
:10057000183038F41092670004C080916B008093AB
:1005800095008AE002C0815019F0B09BFCCF0BC0EF
:10059000F8941092700010927D0010926B00789485
:1005A00002C090E082CFDF91CF911F910895882300
:1005B00019F0B998C19A0895B99AC1980895E0912F
:1005C0006400F09165003197F1F7882329F0BD9818
:1005D000C59AB59BFECF02C0BD9AC59880916200B6
:1005E000909163000197F1F7089581E0E8DF80E0E2
:1005F000E6DF089580E0DBDF81E0E1DF81E0D7DF47
:1006000008950F931F93CF93DF93C7E0D0E0082F97
:1006100010E0C8010C2E02C0959587950A94E2F768
:1006200080FF02C081E001C080E0C1DFDEDF2197F2
:100630008FEFCF3FD80769F781E0B9DF81E0BFDFF7
:1006400016B380E0BCDF16951095812F8170DF9185
:10065000CF911F910F910895FF920F931F93F82E42
:1006600081E0A5DF80E0ABDF17E000E081E0A7DFFD
:10067000000FB199016080E0A2DF1150B8F7FF20B0
:1006800011F081E001C080E092DFAFDF81E08FDF19
:10069000802F1F910F91FF9008952EE088E190E048
:1006A0000FB6F894A89581BD0FBE21BDB998C19A27
:1006B000BD98C59A10926E0010926D0088B38A7F23
:1006C00088BB87B3856087BB80E49CE90197F1F71D
:1006D00087B38A7F87BB76DE7894A8957BDEFDCFD3
:1006E000EF92FF920F931F93CF93DF93E82E292F62
:1006F000F62E80916C00813021F500916D001091F3
:100700006E00862F90E00817190708F4F02E8E2D42
:10071000922F9C01E90102C0899173DF9E012E197D
:100720002F15D0F3A8014F19510950936E00409333
:100730006D0080916F0081FF0AC0452B41F45ADFA4
:1007400006C08E2D60E070E04F2D50E0E1D0DF91CB
:10075000CF911F910F91FF90EF900895CF92DF926C
:10076000EF92FF920F931F93CF93DF93C82E292F01
:10077000D62E80916C00813061F5E0906D00F09094
:100780006E00862F90E0E816F90608F4DE2C8C2D1A
:10079000922F9C018901E70108C080E0209709F4AD
:1007A00081E05ADFF80181938F012197802F8C1906
:1007B0008D1598F397012D19310930936E00209310
:1007C0006D0080916F0081FF0AC0232B41F412DF7E
:1007D00006C08C2D60E070E04D2D50E099D08D2D3D
:1007E000DF91CF911F910F91FF90EF90DF90CF900D
:1007F00008951F93CF93DF93EC0189818230E9F054
:10080000833030F4882359F0813009F073C00DC073
:10081000833009F46AC0883008F06CC030C08A8127
:1008200088838B81898382E066C0CE016AE870E0AC
:1008300044E050E064D084E05EC08A819B81909364
:10084000630080936200892B31F481E090E0909303
:10085000630080936200809162009091630096959E
:1008600087959093650080936400892B09F042C0BE
:1008700081E090E090936500809364003BC01C8110
:10088000110F8A8180FD1160898180FD04C081E0A3
:100890008EDE81E094DE80E08ADE80E090DE812FD3
:1008A000B0DE882341F482E080936C0010926E00E9
:1008B00010926D0010C081E080936C002E813F810A
:1008C00030936E0020936D00898180936F0081FFCB
:1008D00003C0232B09F48EDE8A8180FF0BC08E813A
:1008E0009F81892B39F08FEF06C080916C0088833F
:1008F00081E001C080E0DF91CF911F910895FB015D
:10090000DC0102C005900D9241505040D8F7089587
:10091000DC0101C06D9341505040E0F70895F89418
:02092000FFCF07
:06092200D25A0A00050094
:00000001FF
