:100000006ECF1895189518951895189518951895F8
:100010001895D6C918954ACBBECB18951895189542
:100020001895510C770C790CCC0C7B0C7D0C810C49
:10003000CC0CCC0CCC0CCC0CCC0CCC0CCC0CCC0C00
:10004000830C850C870C890C8B0C8E0C900C920CFD
:10005000940C920C940C940C940C960CCC0CCC0C30
:10006000980C9A0C9C0C9E0CA00CA20CA40CA60C38
:10007000A80CAA0CAC0CAE0CB00C7F0CCC0CCC0CAD
:10008000B20CB40CB60CB80CBA0CBC0CBE0CC00C48
:10009000C20CC40CC60CC80CCA0C7C016400000065
:1000A00004006000E61F07E007B903E806B9369AC6
:1000B000089547B107E007B900E010E0369A34E050
:1000C00020E2349902C02A95E1F764B175B1060FB8
:1000D000171F3A95A9F747B946E02CCF00E2369AA8
:1000E000349902C00A95E1F719D020813181200F9F
:1000F000311F208331830481039504830F3031F451
:1001000008D00093D50100E00083018306E007B921
:100110000895022F000F032F001F089504B115B199
:10012000E4E6F0E0089500E2369A349902C00A95B8
:10013000E1F7F4DF22813381200F311F22833383E3
:10014000048103950483003139F4E3DF0093D70180
:1001500000E002830383048307E007B90895E1996F
:10016000FECF0BD0021741F02DBBF894E29AE19A32
:1001700000E00FBB0EBB789408951FBB0EBBE09A46
:100180000DB30895E199FECFF8CF69D0239724DB12
:10019000802F22DB088320DB902F1EDB0093690079
:1001A0001BDBA02F19DB098317DB0A8315DBB02FBC
:1001B0000091D5010D3220F00091D501083320F0D7
:1001C00049D000EC24DB37C0929A9398082F09DAC3
:1001D00005B50F7E05BD979A07E007BB0091D301D7
:1001E00004BB00E005BBC098C298C198082FF9D99C
:1001F000AA2331F401C024D0092F9A950023D9F7FE
:10020000F894AA2331F0392F2B2F1A81098184D831
:1002100002C0082FE6D9939A9298088104DA04E67E
:1002200002DA789400E004BB05BB03E007BB088159
:10023000FAD9CEDCBBDD239608D0A991B9910895F7
:10024000979800000000979A0895899199910895D0
:1002500005E005D202E010E0C1DB092DD8CABA934F
:10026000AA939A938A9308951CD0B6DA802FB4DAB1
:10027000902F929A9398082FD6D900E007BB08BB1D
:1002800004BB05BB05B5006105BD092FCCD9B6FA85
:1002900026F093989298082FC6D99ADC8EDDD5CF98
:1002A000AA939A938A9308951091B4010091CD0175
:1002B00004D00091BE010CD284CCE4D18DDA10912F
:1002C000B501E0C11091B4010091D101F6DF0091B8
:1002D000C301FED176CCE5DF7FDA902F7DDA802F67
:1002E0001091B4010091C801CDD1B2DF882321F073
:1002F000082F99D90ED006C00CD0092F07D011F4C1
:1003000001E801C000E00AC0AAD10A810CD2002392
:1003100008951091B40100E0B5C100E078DA899148
:1003200099910895BDDF4ED00091CF0141D06FDA91
:1003300017C0009169000A95102F000F000F010FE0
:100340005FD92CD09FD1AA2311F425D0A1E0009130
:10035000BC01BED15CDA0091BD01BAD158DA08D037
:10036000082F192F0297012B21F7D7DFA9910895A4
:100370000FD000811181228133810F5F1F4F2F4FDA
:100380003F4F008311832283338308951091B60178
:10039000E0E6F0E00895FADF018174C11091B50143
:1003A000F7DF00810895082F192F0197012B089579
:1003B00069D1082F192F0D5F1F4F10DB092D27DA88
:1003C00000E00895A0E038DA802F912F1091B40159
:1003D000089545DF269700E0098301E00B832CDABE
:1003E0000C831D83F9D90883F7D90A831091B401CE
:1003F0000091CB0147D18C819D819695879508818D
:1004000000FF27C00E7009F441C001E010E04881F0
:100410004695477089DDA02FB12F0C811D814A2F91
:100420005B2F8EDD0B838A2F9B2F969587952EC091
:1004300057D006E069DF11F401E809830C811D81C2
:10044000025010400C831D8393DF0C811D81012B12
:1004500089F1A1DFA3DF3FD005E056DF49F7ECCFFC
:100460002ED035D03DD001E1FAD00A2F1B2F1197A5
:10047000012BB1F7088107FF09C088DF4081518156
:1004800041505040052FFED005E0E9D00B81102FE0
:100490001A951B83002339F0A82FB92F36DF29F7CF
:1004A00001E80983E2CF088106FF04C02EDF11F4C2
:1004B00001E80983CFDE0981AAD92696BDCE68DF7F
:1004C0004081518122813381042F152F089555DFFA
:1004D0001091B501042FD6D07FD91091B701D2C0A9
:1004E0007BD91091B801CEC0BADE249700E0088312
:1004F000A1E0A2D90A831B836FD9B02F6DD90983DC
:100500000B2F0E70A9F001E010E04B2F46954770BD
:100510000BDD802F912F0A811B81482F592F10DD71
:10052000A02F8A839B8304C0B7FB16F405E097D005
:100530000A2FAA95002331F130D011F401E8088385
:100540001091B4010091CC019DD08A819B8102C0A1
:1005500002E185D028DF41F34091B60119DF018126
:10056000142F90D015DF4081118122813381042F17
:10057000AEDFB0FB6EF305E072D00FD059F701E8A3
:100580000883E8CFB6FB26F408D011F401E808830D
:1005900061DE08813CD924964FCE0981C4D0002366
:1005A00008957EDE0FDF0091D00102DF0DC087DFEE
:1005B000E4DE1091B501042F65D0AA2311F4EBDE1F
:1005C000A1E00091C20184D022D9EDDE81F7A5DE41
:1005D000A99108958A9300D9002311F485E005C0FC
:1005E000013011F486E001C087E01091B401009160
:1005F000C90171DF082F2DDEEFD888DE11F401E884
:1006000001C000E004D9899108954BDEE5D8802F20
:100610001091B4010091CE0135D090E00B96E82FF7
:10062000F92FEC54FE4F008153D0CBDA0ECED4D844
:100630001091B4010091CA014EDF0ADECDD866DE0A
:1006400011F401E8E4C800E0E2C8C6D81091B40192
:100650000091D20117D00091C4013AD0B2CA8A9356
:10066000802FE02FF0E0EC54FE4F108154DEE82F95
:10067000F0E0EC54FE4F00811091C701102B4BDECF
:100680008991089538E02091690001C01ED022238D
:10069000E9F717FB16F4C19A01C0C19807FB16F4DD
:1006A000C09A01C0C098000F110F2091690001C0CD
:1006B0000CD02223E9F73A9561F720916900220FC7
:1006C00001C003D02223E9F70895BADD2A950895E1
:1006D000E8DD902F88E0C098102F1DDE3091C70113
:1006E000392B00E0B29901E02091690001C0EDDFF3
:1006F0002223E9F737FB16F4C19A01C0C198000F15
:10070000B2990395330F2091690001C0DEDF2223E7
:10071000E9F78A9579F720916900220F01C0D5DFAA
:100720002223E9F792CDBDDD902F402F0AE0E4DBD4
:10073000802F992329F401E00AC004E652D78A9554
:10074000B29902C08823C9F7B299F5CF00E07DCDF8
:1007500010916A00112339F01EB11FB10FB9779BB8
:10076000FECF0FB1089520E018E0220F07FB16F42A
:10077000C59A01C0C598000F4091D90104C000C0BE
:1007800000C000C00000342F4A953323C1F7B6994A
:100790002395C79A4091D90104C000C000C000C091
:1007A0000000342F4A953323C1F7C7981A95E9F60C
:1007B000022F0895002331F0C49ABC9A0DB1037042
:1007C000006501C000E00DB908951091D901143001
:1007D00030F40DB10C7F012B0DB901E001C000E038
:1007E00000936A00089596D02397E0DADD20F1F7B0
:1007F000F3D78DD089D0F0D7B02FEED7802FECD79C
:100800000983EAD70A8379D0702E00E000936A004A
:10081000D1DF0091D9010883033019F405E000937A
:10082000D90101E059D6092FDCD6C798C59807B37E
:10083000006A07BB092FD5D600E04ED6092FD1D6C6
:1008400001E04AD60A2FEFD606C0BA954DD0C79A16
:100850004BD0C79849D0BB2321F1042D3AD0052DA8
:1008600038D0062D75DF902F35D0072D71DFA02FE2
:1008700031D00A81033011F4A92F03C0002309F4F9
:10088000A9810981A01709F7DD2408810093D90106
:100890009CDF00916A008EDF00E000936B0098D926
:1008A0000BC0DD2411D000ECB2D708810093D90130
:1008B0001ED00EF011D681DA239602D0B991089598
:1008C00089919991A991089502E010E087D8092DA6
:1008D0009EC73EDF082FA7C6042D3ADF00916100B6
:1008E00037DF0091600034CF0091D9017AC600E073
:1008F00061DF00E007BBB6FA08956ED7402E6CD7D3
:10090000502E6AD7602E68C767D7A02F089564D786
:10091000902F0895BA93AA939A938A930895DD200D
:10092000F1F75AD780D6E3DF1EF0D6D555D77BD660
:100930004FD943CA2AD050D7802FE9DFDD20F1F705
:100940001FD009F025D048D703DF46D701DF44D7B1
:10095000FFDE42D7FDDE992339F0082F0ED029F0B3
:10096000B3DF00E854D702C0D82E32D989919991CB
:100970000895A6DFB99108950A2FDBD100230895C9
:1009800000916B0000230895AA939A938A93089587
:1009900000E000936B0004E6CCC1BCDF2797B8D021
:1009A000098300E0088309810A8300E00C8344D7AF
:1009B0000D831E83A2DF702EAADFA6DF0DD7DD20F8
:1009C000F1F7DEDF41F000E000936B00052DD5DF8D
:1009D00011F001E80883E0E6F0E0038107FD80D034
:1009E000FBD6802FF9D6B02F40FA8F3F26F421F4A2
:1009F0000F3F11F414C099F0062D91D0082FA8DEF6
:100A000041FA16F4052D28D642FA4EF4552D4A2FF8
:100A1000382F61D0092F30D1002309F081D040FA5E
:100A200026F48F3F29F4BF3F19F4F6F0BF3FE1F001
:100A3000062D74D00B2F8CDE40FA36F48A1721F085
:100A4000009160000A838C8341FA16F4052D04D6C8
:100A500042FA5EF4552D4A2F3DD0092F08600CD183
:100A6000002319F05DD001C000000D811E810250ED
:100A700010400D831E833DD00D811E81012B09F096
:100A8000AFCF47FA16F5072D63DE0B8161DE0981D2
:100A90005FDE00E05DDE44FA0EF4D52C45FA86F404
:100AA0000A811981011759F0552D4A2F3C81202FB9
:100AB0001B81092FE1D0002319F032D001C0D52CC1
:100AC00046FA1EF401E000936B00FEDE08819FD61B
:100AD00027964FCF3B2F2091600010916100089521
:100AE0000DE436DE00E034DE0091620031DE00E02D
:100AF0002FCEE0E6F0E000811181228133810F5F8B
:100B00001F4F2F4F3F4F008311832283338308955C
:100B1000009161000B830091600008950860DDCEB4
:100B200000E80883089530DFA02F2AD0402EDD2072
:100B3000F1F726DF09F02CDFE0E6F0E0038107FDA6
:100B4000CFDF082F192F20D062D616C0C5DE00E0F7
:100B5000FFDD5DD60197AA2331F0042DDFDF00E031
:100B6000F7DD55D60197C5DF37FF06C0112321F405
:100B70000081002309F4B4DF082F092B39F70BC0DB
:100B80005BD6802F912F28C60D5F1F4F27D7092DC9
:100B90003ED600E0089500E03AD692CEBBDE25971F
:100BA000B7DF0C8300E00883EBDF702EADDEA5DE3F
:100BB000098312D60A83DD20F1F7E2DE09F100E0B5
:100BC00000936B00D9DEE1F0ABDF1AC005D6B02F81
:100BD00083DE0B2FBDDD71FA16F40A2F3DD572FAB4
:100BE0004EF46A2F5A81498175DF062D70D000239B
:100BF00009F096DF73FA1EF4BFDE09F091DF79DFAA
:100C0000082F192F0197012B09F777FA8EF4052D7C
:100C10009FDD0B819DDD0C819BDD00E099DD74FA89
:100C200016F40A2F19D576FA1EF401E000936B0032
:100C30004BDE0881ECD525969CCEA6DE68DE64DE10
:100C4000CBD5802F0A2F10E09FDFE1D5DD20F1F713
:100C5000992321F4AA2300E029F49ECFBDD578DDA5
:100C60009A9501C075DD882311F08A95F1CFAA23EA
:100C700079F3CDD5AA95ECCF4DDE22970883198361
:100C8000B22F832F942F052F841719F4E5D400E099
:100C900018C0D52EA1E017D00B2F5ADD00E058DD8B
:100CA000A13021F4091721F4A2E002C0A23019F406
:100CB000081709F4A0E0DD2011F0AA2361F7DD2474
:100CC0000A2F229656CE088143DD098141CD22DECE
:100CD0002397088319832A83832FB42F952F062FF8
:100CE000841711F0851719F4B7D400E021C0D62E6F
:100CF000B51711F4A2E001C0A1E0E5DF0A8128DD0B
:100D000000E026DDA13039F40B1709F4A2E0091741
:100D100031F4A3E004C0A230D1F3A33019F40817D2
:100D200009F4A0E0DD2011F0AA2339F7DD240A2F11
:100D3000C3CDD02E00EF0CDD00E00ADD00E008DDC1
:100D400000E006DD00FB16F4DD20A1F7DD24102F06
:100D50001170012F0895DD20F1F73ED5F9DC3CD567
:100D6000F7DC3AD5F5DC38D5F3DC03E010E00EDF34
:100D70000FDF4DC509DEC8DDDD20F1F72DD5E8DC3C
:100D80002BD5E6DC29D5E4DC902F26D5E1DC802FBD
:100D900004E010E0FBDE3BD5A33011F4092F01C0C5
:100DA000082F35D5F8CE1091BC0115BB05C0FBDF6F
:100DB0000091B80105BB10D508BB97980000000052
:100DC000979A08956BD0239707D5B02F05D50A833E
:100DD00003D5902F01D5A02FFFD40883FDD409831C
:100DE000FBD4802F00E00DB90091D5010D3220F029
:100DF0000091D501083320F048D000EC08D530C070
:100E000005B50F7E05BD979A929A93980B2FE9D35B
:100E1000AA2331F401C02ED0092F9A950023D9F7C7
:100E20000091CD0104BB0091CE0105BB0FEF07BBC4
:100E300000E008BBF894AA2331F0392F282F19813C
:100E400008816AD202C00B2FCCD3939A92980B2FB1
:100E5000C8D30A81C6D304E6E6D37894B9D6A6D718
:100E6000239604D0A991B9910895D1D489919991EB
:100E7000089501D0A2CF0091B50105BBE0E6F0E0F6
:100E8000118118BB089506D005BB02E010E0A6D57D
:100E9000092DBDC4C8D30091C0010895BA93AA9387
:100EA0009A938A93089522D097D4802F95D4902F27
:100EB000929A9398082FB7D300E007BB08BB04BBF6
:100EC00005BB05B5006105BD092FADD3B6FA26F007
:100ED00093989298082FA7D30AE0A5D379D66DD717
:100EE000C5CF00E007BB0FEF08BB08959A938A9324
:100EF0000895F7CF05D005BB6FD408BB07D061C6F6
:100F000008E051DF0091B40108950BD056DFE9DF0E
:100F100017D01091C00115BB1FEF17BB10E018BB15
:100F20000895008108BB00811181228133810F5F08
:100F30001F4F2F4F3F4F0083118322833383089528
:100F40000091C80105BB000000000000000006B3CE
:100F50000895D6DF2FDF02D0DEDF33C6C2DF009177
:100F6000CB01F0DF1091C3010895AA93BFDF2AD00F
:100F7000A38162D4802F912F02E015DFA7FB36F406
:100F80000091B6011ED0228128BB74DF72DF082FCA
:100F9000192F0ED007C013D0B8DF39D416D019F0EE
:100FA000DDDFB9DF34D411D0B1F714D0A9910895A1
:100FB0000D5F1F4F13D5092D2AD400E0089500912D
:100FC000B40105BBE0E6F0E00895082F192F019762
:100FD000012B089500E049CF89DFFED3902FFCD389
:100FE000802F00E8E0DE0DD0092F4DDF082F06D05E
:100FF00011F401E801C000E038CF09816FD100236E
:1010000008950091C40105BB0000089547DF2997AA
:1010100000E00983D7DF11811E8322812F83338172
:10102000388701E00B8308D40C831D83D5D3088354
:10103000D3D30A838C819D819695879500E1B3DE99
:10104000088100FF29C00E7009F449C001E010E0DA
:1010500048814695477068D7A02FB12F0C811D811C
:101060004A2F5B2F6DD70B838A2F9B2F96958795E1
:1010700036C00091B9019EDE54D000E0D4D24DD0EC
:101080005DD011F401E809830C811D8102501040EC
:101090000C831D83012BC9F15AD08EDE53D04ED064
:1010A00041F7F0CF8CDF58D087DE0091B90182DEA6
:1010B00031D00A2F1B2F1197012BA1F7088107FFB1
:1010C0000EC00091B50105BB0E8176DE088507FFD5
:1010D00005C00091B60105BB0F816EDE33D00B81D8
:1010E000102F1A951B83002339F0A82FB92F26D073
:1010F00001F701E80983DDCF088106FF06C01ED095
:1011000011F401E8098300E04EDEBFDE09817FD3E0
:101110002996A7CE0091CC0105BB0091C10105BB6A
:1011200008950091C50105BB0000089523B301E0B7
:1011300010E04091CF01F8D6022308950A81CED065
:10114000002308955EDF00E0A5DE05BB089593DE71
:1011500034DE0091B40105BBE4DE2FDE0091B8015E
:1011600005BB3AC39BDE249700E00883A1E064D36B
:101170000A831B8331D3B02F2FD309830B2F0E701B
:10118000A1F001E010E04B2F46954770CDD6802F9F
:10119000912F0A811B81482F592FD2D6A02F8A83E5
:1011A0009B8303C0B7FB0EF4CDDF0A2FAA95002363
:1011B000B1F023DF11F401E8088301E1F4DD8A8155
:1011C0009B8101C0A7DF01DF69F3C1DFF5DDB0FB63
:1011D000CEF3B8DF12DFB9F701E80883F4CFB6FB2E
:1011E00026F40BDF11F401E808834FDE08810FD3EA
:1011F000249637CE7BDE20D3802F912FD9DE07D3E4
:1012000003E0D1DD06C035DE0091B40105BB7DDE13
:10121000FED2DBDEC1F7DECE04E0C5DDDDD2002389
:1012200039F00A9551F00A9559F00A9581F011C0EC
:1012300060DE86DE1091C00101C090DE6CDEC1C4AC
:1012400058DE0091CA017EDE1091C201F7CF03D0B3
:10125000F5CF0FEFB6C445DE0091C90173DE1091E2
:10126000C1010895B9D204E09EDDF5DF54DEA9C4C2
:101270008A93B2D2802F00E49ADD882329F08A95E0
:1012800039F08A9559F013C0BCDEA6D203DE0EC039
:1012900048DFA2D2C8D10091C10108C00091C601A7
:1012A00005BB000099D2BFD10091C20105BBEDDDA5
:1012B00093D2A4DE11F401E801C000E0A8D2899124
:1012C00008958AD200E273DD9CDE86D2DCDD84D212
:1012D00095DE11F401E89BC200E099C2BA93AA938B
:1012E0008A93802F402F50E00AE010E00DD6A02F07
:1012F000B12F882329F401E00BC004E672D11197C5
:1013000015DF19F40A2F0B2BC1F710DFA1F700E04E
:101310008991A991B9910895C1DD1A93B02FA22F97
:10132000832F10E005E938D010E004E935D00FE054
:101330007AD1BFD60A3018F490E00B2F04C091E0A8
:101340004B2F0AE0D9D56FD11091D40104E924D0F4
:101350001091D60105E920D0992349F048810AE08F
:10136000CBD561D14A2F0AE0C7D54AD105C0088143
:101370005AD10A2FFACF7EDD082F8A950023D9F79C
:1013800021966FCD01EA0FBD00E009BD08BD0BBD80
:101390000ABD01E00EBD0895112309F01395110F48
:1013A000110F043929F430E03BBD1ABD01E0089566
:1013B000053921F430E039BD18BDF8CF00E00895BB
:1013C0008A93FA93EA933A922A921A920A927A9319
:1013D0006A935A934A933A932A931A930A938FB72C
:1013E000A2BEDD2009F0DA945AD0038501FD16C0B3
:1013F000B6FA4EF0B4FA96F401E06ED06894B6F8FE
:10140000C090D8010BC0CC2009F0CA94B4FA36F0D1
:10141000CC2021F4E894B6F800E05ED0ECE6F0E0F1
:101420000181039501830F7099F40081002381F4F9
:1014300002E0FED401FB16F0689401C0E894B4F811
:1014400000FB2DD0038516F0006101C00F7E0387DD
:1014500026D0028500FD12C000916D00037001309E
:1014600009F43CD600916D000370023009F45BD69C
:1014700000916D000F710F3109F44ED08FBF0991AB
:1014800019912991399149915991699179910990CD
:10149000199029903990E991F99189911895E4ED85
:1014A000F1E00895DD24CC24BB24F9DF028500FFA0
:1014B00002C005EC01C00CE8A02EA2BE01E009BFED
:1014C00003E003BF089528E125BD2FEF24BD13BD20
:1014D0000770086105BD08950130E1DF038569F4F7
:1014E00003FF04C0028500FD13C004C0028500FF95
:1014F00010C08A9A929A9398089503FF06C00285B5
:1015000000FF07C0929A8A980895028500FFF2CFE3
:101510008A9A93989298089500916E000023A1F4FE
:1015200000916F00002381F40091D6010C3060F02F
:101530000091D7010C3040F410E005E92DDF00E206
:101540003ED000936F0011C000916F00013039F45C
:101550001091D60105E920DF3AD0018104C00023B3
:1015600021F0EEE6F0E00A95018300916E00002381
:1015700099F40091D4010C3008F10091D5010C30A0
:10158000E8F410E005E908DF10E004E905DF08E011
:1015900016D000936E000895013061F41091D401CB
:1015A00004E9FADE01E000936F0011D000810A9592
:1015B00000830895EEE6F0E00A9500830895009315
:1015C000DA010B2D0E7F0260B02E04E1089500E0D9
:1015D0000093DA010B2D0D7F0160B02EEEE6F0E0F6
:1015E00008955DDF128510FF08C0002341F000C0A0
:1015F0000A95FBCF00C000000A950023D9F7089593
:1016000004C01BE01A95F1F700C0102F0A951123B2
:1016100049F045DF128510FDF4CF17E11A95F1F777
:101620000000F3CF089507C02AE633E02150304090
:10163000E9F700C00000102F0A95112361F02FDF99
:10164000128510FDF1CF25ED36E021503040E9F74D
:1016500000C00000F0CF089510916D00100F00231E
:1016600021F000916D000117E1F7089509B908E92B
:101670000AB903E0202F3FB7F89420FB4EF400E0B6
:1016800012D0048305830283038307A7038701879E
:1016900021FB2EF400E000939E0000939D0037FB99
:1016A0000EF478940895E0E7F0E008959A938A9311
:1016B000FA93EA934A933A932A931A930A934FB769
:1016C0000CB1F1DF11851027118717A5105061F1BA
:1016D0001A95A9F11A95B1F11A95C9F11A95F9F16E
:1016E0001A9521F01A9509F440C046C02281338131
:1016F000822F932F019682839383E22FF32FEF554E
:10170000FF4F0083D0DF068117810F5F1F4F0683D5
:10171000178306811781208131810217130710F486
:1017200005E02BC006E029C00B3100E031F5008355
:101730000183068307830BE1018701E01EC0038755
:1017400002E01BC020E02083018303E016C020815B
:101750003181202B33232083318304E00EC00E30EF
:1017600000E059F402830383DBCF0185002301E00D
:1017700011F4048701C0028700E000AB00A907A7AD
:101780004FBF09911991299139914991E991F991A5
:10179000899199911895FA93EA932A931A930A9347
:1017A0002FB700919D0010919E00011769F00091E4
:1017B0009E0003950F7100939E00E02FF0E0E0592A
:1017C000FF4F05850CB901C055982FBF099119919C
:1017D0002991E991F99118955B2F4A2F64DF0281D5
:1017E00013812481358102171307C1F30481158108
:1017F000E02FF12F3196A4E7B0E0ED93FC93E02FBA
:10180000F12FEF55FF4F0081A42FB52F08952091A0
:101810009D0023952F7110919E002117E1F3E22F77
:10182000F0E0E059FF4F058720939D00559A3BDF7C
:1018300010851027108708959A938A93CDDF80E052
:10184000902FCADF10E0080F191F89919991089510
:1018500000917A00002359F0ABD000EBD8DF01EC07
:10186000D6DF00917900AED000937A000895009100
:101870007C00002309F49BC002E0FCDEADDF902E6B
:101880000A950C3308F088C0E02FF0E0EE0FFF1F40
:10189000EE5DFF4FC8953196002DC895E02FF02DD5
:1018A00009940BE094D000E0B2DF08E0B0DF85D00F
:1018B000028500FF10C001E4AADF06E5A8DF02E50B
:1018C000A6DF09E4A4DF03E5A2DF00E5A0DF0FE562
:1018D0009EDF02E364C003E59ADF04E598DF0BE4D2
:1018E00096DF05E394DF00E392DF00E3EFCF88D0DB
:1018F00057C0E1D055C025D153C032D151C04ED1CF
:101900004FC069D14DC06FD74BC009D849C012D85C
:1019100047C043D845C001E006D942C03FD940C0C6
:1019200000E0FACF18DA3CC025DA3AC086D938C0D0
:1019300049DA36C0B8DA34C04FDB32C067DB30C0BA
:1019400014DB2EC00FDC2CC055DC2AC091DC28C073
:1019500063DC26C0B6DC24C085DC22C0CBDA20C024
:10196000F8DA1EC012D41CC07FD41AC0B4D418C078
:1019700030D516C0D7D414C0B7D512C012D610C0F7
:1019800029D60EC042D60CC052D60AC05ED608C0B8
:101990008BD406C097D404C001E019D009EC37DF1E
:1019A00001E068DE009178000DD000937C0008957E
:1019B00002E010E013C001E203D0E4EDF1E008958D
:1019C00010E0CDC324DF00E000937900089510E01B
:1019D00005D0092D1CCFECDF092D19CF9A938A93DE
:1019E000802F912F0BE113DF00917B0010DF092F77
:1019F0000EDF082F0CDF0EE00ADF89919991089520
:101A00009A938A93E9DE902FE7DE802FE4DF9459E2
:101A100069F09A95B9F09A95F9F09A9549F19A95E5
:101A200069F19650C9F19A95A1F143C08093D40110
:101A30002091D40100E1C4DF1091D40104E9ACDCB1
:101A400000E038C08093D6012091D60104E1B8DFD0
:101A50001091D60105E9F3CF8093DB012091DB01E2
:101A600008E1AEDF1091DC010091DB012CDDE8CF55
:101A70008093DC012091DC010CE1F3CF8093D9014C
:101A8000A4D600916A0096D62091D90104E298DF8D
:101A9000D7CF8093DD01D4CF882329F021E08BDFDD
:101AA0000385086004C020E086DF0385077F038785
:101AB000C7CF00ECA1CF90DE005819F10A9519F1BB
:101AC0000F50B9F00A95C9F00A95C9F00250E9F033
:101AD0000A95F1F00A9521F10A9529F10A9541F14B
:101AE000025021F10250C9F00A95A9F0025019F1F3
:101AF00025C008E09DD10F7064C002E062C00AE01A
:101B000060C009E05EC000E05CC00091D50159C032
:101B10000091D60156C006B354C00091DF0151C0F8
:101B20000091DB014EC00091DC014BC04FD149C098
:101B30000091D90146C00091DD0143C04CDF00ECAB
:101B400066CE8A933ADF028501708BD1002311F0B3
:101B500080E001C080EC3FDF082F59DE89910895B5
:101B60003BDE20E0E0E6F0E0208321832283038354
:101B70000DD0602B0AD0502B08D0402B01D028C0AC
:101B800040835183628373830895FADF25DEE0E6A4
:101B9000F0E040815181628173810895BA93AA93E4
:101BA0008A9306DFA4EBB1E080E216DE0D938A95FE
:101BB000E1F7092D2CDE00E02ADE8991A991B99187
:101BC00008958A93802F03E002DF00E020DEC4CF77
:101BD00002DF00E01CCE9A938A9380E0E0E7F0E019
:101BE000008111810A30104069F0F5DE00EC04CF6D
:101BF000F3DDECEDFFE1E80FF91FC895102D10178C
:101C0000A1F78395ECEDFFE190E0E80FF91FC8958F
:101C1000002071F7882349F3DBDF00917800F7DDBE
:101C200004E61ADD9DB900E107BB98BBFFCF08E0D1
:101C3000FFD00F700F309ED0028511F4016001C0FB
:101C40000E7F02872FDC00E00093DD0193D0028538
:101C500000FF02C001E001C003E008DD00E188D020
:101C60000093D4010091D4010D3338F002E30093C6
:101C7000D4012091D40100E179D004E179D000931E
:101C8000D6010091D4011091D601011740F40091C2
:101C9000D4010093D6012091D60104E167D01091C0
:101CA000D40104E979DB1091D60105E975DB04E67E
:101CB000BADC789408E15CD00093DB010091DB0191
:101CC0000830B0F001E00093DB012091DB0108E176
:101CD0004DD000E00093DC012091DC010CE146D006
:101CE0000AE00093D9012091D90104E23FD038D015
:101CF0000CE13ED00093DC0100E23AD00093D80121
:101D00000091D801002309F42BD004E231D00093D4
:101D1000D90101E22DD000232DD0038511F00860F8
:101D200001C0077F038700E0D7DB1091DC01009141
:101D3000DB01C9DB00E00093DA0168940ED06894FF
:101D400008D0E8940AD0E89404D06894B0F880DD14
:101D5000FECFB0F800D00AEF66CCB1F8FCDFFBCFC5
:101D600004E10093D8012091D80100E210E0F7C10E
:101D700010E008C2E4EDF1E0089504DB00E010E0BB
:101D8000E0E6F0E0008301830283038304E002BB0A
:101D90000EEB01BB0FE30BBB00E30ABB18BB17BB89
:101DA00015BB14BB80D101E010E00895E3DF03858B
:101DB0000260038703E0B02A0895DCDF03850D7F0E
:101DC00003870B2D0D7F0160B02E0895AA939A937F
:101DD0008A9390E001E000936C0025DC80E002C073
:101DE00080FB16F0DC9801C0DC9A81FB16F4DD9ACA
:101DF00001C0DD9802E017DCDC980000DC9A03E00B
:101E0000DD98DD9AAA0F8699A3950A95C9F7990FCF
:101E1000990F092F9A2F9370900F8395843000F3B8
:101E200000E000936C00092F89919991A991089580
:101E300020E0DC98DC9A05C0220F86992160DD98AD
:101E4000DD9A102F0A951123B9F7B1FA16F4DC9830
:101E500001C0DC9AB0FA16F4DD9801C0DD9A022FB9
:101E60000895F8941A932A933A934A935A936A934B
:101E70007A938A93602F78E057B386B3BD9AB59A68
:101E80006FE1013009F46CE00FEF1FEF26B320740F
:101E900030E00317130799F036B330742317232F5C
:101EA00011F07A9571F040E238B3342738BB30E056
:101EB0000A9509F41A95362F3A95F1F7E9CF00E023
:101EC00002C001E000C086BB57BB8991799169913E
:101ED00059914991399129911991789408950FEF69
:101EE0000DBF01E00EBFC0E3D2E047DF002309F0E1
:101EF0004CD09DDE70D06FC0002E0027469508F4B0
:101F0000000D000CD9F708950024112400300107BA
:101F100041F01695079510F4040E151E440F551F39
:101F2000F5CF002D112D08954A951AF0000F111FBD
:101F3000FBCF08954A951AF016950795FBCF0895A3
:101F400000241124EFE0001F111F001C111C0416B7
:101F5000150610F0041A150AEA95AAF7001F111FBA
:101F6000402D512D00951095089520E02D9302D01D
:101F7000E1F7089501501040202F212B0895C895B6
:101F800031960D92F7DFD9F708958AE990E0E82FAE
:101F9000F92FC895002D3196C895102DE82FF92FEF
:101FA0003296C895A02D3196C895B02DE82FF92FFF
:101FB0003496C895202D3196C895422F402921F09E
:101FC000E22FF02DDCDF01C0D0DF069610E0863A6C
:101FD0009107E8F2089500008895FECF6677757046
:101FE000677261646500AA550000FFFFFFFFFFFFF5
:101FF000FFFFFFFFFFFFFFFFFFFFFFFFFFFFFFFFF1
:00000001FF
