:1000000015308A007F2D00000A108A100A1182071D
:1000100054344D3400340A108A100A1182074D34CA
:100020003234203400340A108A100A1182074D3409
:10003000313420340034242AC421A539202A4D2803
:10004000A0123118CC2AA0123118CC2AA0123118D3
:10005000CC2AA0123118CC2A200030173200242AD2
:10006000C421A539A0263110000130173200242AFE
:10007000C421A539A02632100001301732000D0529
:100080000D0523105422C3127310A8212910321811
:10009000B1182025E1357531A025E1356F37E1062E
:1000A0000A0030173200242AC421A5392D1F00016F
:1000B0003017320083162908203C03196628AA004D
:1000C000A50DA60DA70DA80DAA0B60288614061075
:1000D00006118312061183162908AA008312061539
:1000E0008316A81B7628831206108316A81F7B2868
:1000F000831206148316A50DA60DA70DA80D831255
:100100000611F70DF80DF90DFA0D861C77108618FB
:1001100077148316AA0B6E288312080083168611A3
:10012000831286118316A801A701A6015030A500ED
:100130000830A90083125A2083168611831286156F
:10014000A6010130A700A801A901AA002B14AB1039
:100150002B11AB152B16AB122B17AB132C10AC10AD
:100160000530AD00AE002C11AF01B0010130B1007F
:10017000AC112C12AC120330B600B501B401B301BE
:10018000B201BA01B901B801B701BE01BD01BC019C
:10019000BB01BF012C13AC17C001C201C101080093
:1001A0007B308400831300080319E3280630F8002D
:1001B000F701F70BD928F80BD8287B30F700F70B9D
:1001C000DF28800BD6280800831686138312861337
:1001D0000830F800EB280000F817FE28F813831603
:1001E000A80C831203188617031C86137817FE28A1
:1001F0007813F80BEF28FC2800008617A73084003E
:10020000840B00290329F81BEE28781BF828080026
:10021000831603178C170C140000000003182B29F9
:1002200083120C087F39F4000D08F5000F08F60062
:10023000740883160313A8008312E42075080317BB
:100240008D0076088F0083168C170C1400000000B8
:10025000F30B2B29492983120C0D0E0D7F39F40065
:100260000D08F5000F08F600740883160313A800A4
:100270008312E420750803178D0076088F008D0A1D
:1002800003198F0A0310F30B462948290313082981
:100290008316831203130800831603178C170C149C
:1002A0000000000083120C087F3903198829F3002D
:1002B0000D08F4000F08F500730883160313A80057
:1002C0008312E420740803178D0075088F008316CD
:1002D0008C170C140000000083120C0D0E0D7F39DA
:1002E00003198829F3000D08F4000F08F5007308BE
:1002F00083160313A8008312E420740803178D00EB
:1003000075088F008D0A03198F0A03134C290317F0
:1003100003130800E601E701831606178312061B84
:100320008F290830F700E801F717A429F713A4294B
:100330000310061B0314E80C7717A4297713F70B97
:1003400098296808F800B029A730F71B2D30F8006D
:10035000F80BA8290000F71B9629771B9E299829DE
:100360007808E6000D3C0319CD296708630784006F
:1003700083136418831766088000023065026702E1
:10038000031DCB29013067076307840083136418BA
:1003900083178001D429E70A8C2967086307840042
:1003A00083136418831780018A110A16692E800846
:1003B0000319EE29E4010408E3006410831B6414AC
:1003C00000088316A8008312E420630884008313C6
:1003D00064188317840A0319850AD7298A110A1613
:1003E0006F2EE70803193D2A6408FA0063088400A9
:1003F00083137A1883170008E8006608FA00650876
:10040000840083137A188317000868020319222ACC
:100410006408FA006308840083137A1883170008BD
:10042000E8006608FA006508840083137A188317C9
:100430000008680203181E2AFF301F2A0130F80046
:100440003F2A2F2A6408FA006308840083137A186D
:1004500083178008031D2F2A0030F8003F2A640804
:10046000FA006308E30A0319E40A6608FA0065085B
:10047000E50A0319E60AE703F1290030F80008004D
:1004800083168611831286118316A801A701A6017F
:100490008130A5000830A90083125A208316A801D4
:1004A000A701A60183122D088316A5000430A90018
:1004B00083125A208316A801A701A60183122E08D1
:1004C0008316A5000430A90083125A2000302C198D
:1004D0000130FB008316A801A701A6017B08A50037
:1004E0000130A90083125A208316A801A701A60192
:1004F0000130A500A90083125A208316A801A70184
:10050000A60183122F088316A5000330A9008312C9
:100510005A208316A801A701A6018312300883166A
:10052000A5000330A90083125A208316A801A70151
:10053000A601A5010830A90083125A20831686114E
:10054000831286150800831686118312861183167E
:10055000A801A701A6018030A5000830A9008312D8
:100560005A208316A801A701A60183122608831624
:10057000A5000430A90083125A208316A801A70100
:10058000A601831227088316A5000430A900831250
:100590005A208316A801A701A601831228088316F2
:1005A000A5000230A90083125A208316A801A701D2
:1005B000A601831229088316A5000230A900831220
:1005C0005A208316A801A701A60183122A088316C0
:1005D000A5000230A90083125A2000302B180130E8
:1005E000E5008316A801A701A601831265088316FA
:1005F000A5000130A90083125A200030AB18013049
:10060000E5008316A801A701A601831265088316D9
:10061000A5000130A90083125A2000302B190130A7
:10062000E5008316A801A701A601831265088316B9
:10063000A5000130A90083125A200030AB19013007
:10064000E5008316A801A701A60183126508831699
:10065000A5000130A90083125A2000302B1A013066
:10066000E5008316A801A701A60183126508831679
:10067000A5000130A90083125A200030AB1A0130C6
:10068000E5008316A801A701A60183126508831659
:10069000A5000130A90083125A2000302B1B013025
:1006A000E5008316A801A701A60183126508831639
:1006B000A5000130A90083125A200030AB1B013085
:1006C000E5008316A801A701A60183126508831619
:1006D000A5000130A90083125A2000302C180130E7
:1006E000E5008316A801A701A601831265088316F9
:1006F000A5000130A90083125A200030AC18013047
:10070000E5008316A801A701A601831265088316D8
:10071000A5000130A90083125A2083168611831286
:100720008615402283168611831286118316A8012E
:10073000A701A6018230A5002030A90083125A200B
:100740008316A801A701A601831231088316A5000C
:100750000330A90083125A200030AC190130E500A3
:100760008316A801A701A601831265088316A500B8
:100770000130A90083125A2000302C1A0130E50004
:100780008316A801A701A601831265088316A50098
:100790000130A90083125A2035088316A80083125D
:1007A00034088316A700831233088316A600831229
:1007B00032088316A5001330A90083125A2083162D
:1007C000861183128615831686118312861183166D
:1007D000A801A701A6018330A5002030A90083123B
:1007E0005A208316A801A701A601A5010230A9007D
:1007F00083125A200030AC1A0130E5008316A8019C
:10080000A701A601831265088316A5000130A9007F
:1008100083125A208316A801A701A6018312360865
:100820008316A5000230A90083125A203A088316C5
:10083000A800831239088316A7008312380883168C
:10084000A600831237088316A5001330A90083126F
:100850005A208316861183128615831686118312F9
:1008600086118316A801A701A6018430A5002030B7
:10087000A90083125A208316A801A701A6010430FB
:10088000A5000530A90083125A203E088316A8004F
:1008900083123D088316A70083123C088316A60026
:1008A00083123B088316A5001330A90083125A2037
:1008B000831686118312861583168611831286117C
:1008C0008316A801A701A6018530A5002030A90044
:1008D00083125A208316A801A701A60183123F089C
:1008E0008316A5000330A90083125A2000302C1B68
:1008F0000130E5008316A801A701A601831265084F
:100900008316A5000130A90083125A200030AC1BC9
:100910000130E5008316A801A701A601831265082E
:100920008316A5000130A90083125A208316A8015E
:10093000A701A601831240088316A5000330A90071
:1009400083125A208316A801A70183124208831636
:10095000A600831241088316A5001030A900831257
:100960005A20831686118312861508008316861175
:10097000831286118316A801A701A6017030A50075
:100980000830A90083125A20831686118312861517
:1009900008008316A301A201A101A0018611831200
:1009A0008611B0307D07FF3EFE008316A801A70127
:1009B000A6017E08A5000830A90083125A208316DC
:1009C000A801A701A601A5012030A90083125A2081
:1009D0007A088316A3007908A2007808A100770896
:1009E000A00086118312861583162008F7002108BF
:1009F000F8002208F9002308FA0083120800F70122
:100A0000F801F901FA018316B001B101B201B30195
:100A10002F082E042D042C0403193E2D2030B40081
:100A20000310A80DA90DAA0DAB0DB00DB10DB20D9F
:100A3000B30D2F083302031D272D2E083202031D8C
:100A4000272D2D083102031D272D2C083002031CF1
:100A5000382D2C08B0022D08031C2D0FB1022E08D2
:100A6000031C2E0FB2022F08031C2F0FB302031416
:100A7000F70DF80DF90DFA0DB40B102DB030840000
:100A800083138312080004088316A0003B30A700DC
:100A90009A30A600CA30A500A4010A30A200760848
:100AA000AB007508AA007408A9007308A8002708FD
:100AB000AF002608AE002508AD002408AC00831264
:100AC000FF240008F300840A0008F400840A0008E8
:100AD000F500840A0008F600FD308407F708031DBE
:100AE000882D83162208013A031D782D8312882D44
:100AF000200803198A2D0F3922020319812D0318AA
:100B0000912DA01B912D201B8A2D20308B2D83121F
:100B10008316A0013030F7077708A8008312E4207D
:100B200083162708AB002608AA002508A900240878
:100B3000A800AF01AE01AD010A30AC008312FF2462
:100B40007A088316A7007908A6007808A500770818
:100B5000A400A20B4F2D831208000330ED02031CEA
:100B6000BB2D6D308400831300080319BB2DB92DF4
:100B7000B92D800BB82D08008316091183120911B5
:100B80000230EC00F930ED00AD25EC0BC22D8316E0
:100B9000091502308312EC00F930ED00AD25EC0BA5
:100BA000CC2D8316091583120800ED016D08073C52
:100BB000031CF82D83160911831209110330F70065
:100BC000F70BE02D0314EC0C0318E82D0911E92DA7
:100BD0000915831609116330F700F70BED2DF02D81
:100BE00009150330F700F70BF32D8312ED0AD62D0C
:100BF0000800EC016C08073C031C1B2E831609112E
:100C0000831209110330F700F70B042E8316091520
:100C10000D30F700F70B0A2E091583120919122E51
:100C20000310132E0314ED0CC730F700F70B162E2C
:100C3000192EEC0AFA2D6D08F8000800831620081A
:100C40000319E42EAC0024080319E42EAC02031CA3
:100C50002E2E7F30AC070318E42E342E8130AC02E8
:100C6000031CE42E0319E42E2C08F700F801F90107
:100C7000FA01AB012108AA00AA172208A90023083B
:100C8000A8001930AC002708A8020318572E01301D
:100C9000A9020318572EAA020318572EAB020318F5
:100CA000572EAB0AAA0AA90A2708A807892E2608E0
:100CB000A9020318722E0130AA020318722EAB0289
:100CC0000318722EAB0AAA0A2608A9072708A80744
:100CD000031C892EA90A031D892EAA0A031D892E29
:100CE000AB0A892E25088038AA020318882E013005
:100CF000AB020318882EAB0A25088038AA072608FD
:100D0000A907031C662EAA0A031D662EAB0A662ECF
:100D10007A14AC0B8C2E972E0310A80DA90DAA0DDA
:100D2000AB0D0310FA0DF90DF80DAD0D432E2D1C72
:100D30009F2E0310F80CF90CFA0CAD0CA22EF70341
:100D40000319E42EAD1BCB2E0310A80DA90DAA0D7F
:100D5000AB0D2708A8020318B72E0130A90203180B
:100D6000B72EAA020318B72EAB02031CDA2E2608F0
:100D7000A9020318C22E0130AA020318C22EAB0228
:100D8000031CDA2E25088038AA020318CB2E013066
:100D9000AB02031CDA2EFA0A031DDA2EF90A031D30
:100DA000DA2EF80A031DDA2EF70A0319E42EF80CDE
:100DB000F90CFA0C2108AC002508AC06AC1FE22E99
:100DC000F817E82EF813E82EF701F801F901FA01F7
:100DD000831208008316280803195B2FB0002C0823
:100DE00003195B2FB0070318FC2E7F30B002031CE1
:100DF0005B2F03195B2F002F8130B00703185B2F87
:100E00003008F700F801F901FA012908B400B41715
:100E10002A08B3002B08B2001830B000B101321C10
:100E2000292F2F08FA07031C1B2FF90A031D1B2F5C
:100E3000F80A0319B1172E08F907031C222FF80A24
:100E40000319B1172D08AA00AA172A08F8070318D2
:100E5000B117B10DF80CF90CFA0CB40CB30CB20CC0
:100E60000310B00B0E2F0130F70703185B2FF81B90
:100E7000402FB40DFA0DF90DF80DF70303195B2F90
:100E8000B41F512FFA0A031D512FF90A031D512FC8
:100E9000F80A031D512FF80CF90CFA0CF70A031984
:100EA0005B2F2908B1002D08B106B11F592FF81783
:100EB0005F2FF8135F2FF701F801F901FA01831290
:100EC000080083164708C9004608CB004508CA0039
:100ED0004808003C0318812F4B08FA004A08840098
:100EE00083137A18831749080002031D7C2F4A08D0
:100EF000F8004B08F900842FCA0A0319CB0AC8036B
:100F0000682F0030F800F90083120800831686115C
:100F1000831286118316A801A701A6010130A5003E
:100F20000830A90083125A20831686118312861571
:100F3000080083168611831286118316A801A70163
:100F4000A601B430A5000830A90083125A208316E8
:100F5000A801A701A601A5011030A90083125A20FB
:100F60007808FC007708FB0083168611831286152B
:100F70007B08F8007C08F9000800B630F700FA0199
:100F8000F901F8017B087C047D047E04031DCA2F4F
:100F9000F701D72F0310F81BD62FFB0DFC0DFD0D0D
:100FA000FE0DFA0DF90DF80DF70BCA2FF813080016
:1010000004088316A0007108A20003192A2870089A
:10101000AB0083126F088316AA0083126E08831632
:10102000A90083126D088316A800AF01AE0120301D
:10103000AD008230AC008A118312EA268A157A0844
:10104000F0007908EF007808EE007708ED008316CD
:10105000A20B07287008AB0083126F088316AA0042
:1010600083126E088316A90083126D088316A800E8
:101070002808B63CA800FA012908AC00A9170310FB
:10108000A90CAA0CAB0CFA0CF90CF80CF70CA80B79
:101090003F28AC1F5628F709F809F909FA09F70A99
:1010A0000319F80A0319F90A0319FA0A7A08F00071
:1010B00079088312EF007808EE007708ED00F01F42
:1010C00070288316A003A0168312ED09EE09EF091C
:1010D000F009ED0A0319EE0A0319EF0A0319F00AE1
:1010E0003B308316A7009A30A600CA30A500A401A1
:1010F0000A30A20071080319A00A7008AB0083121D
:101100006F088316AA0083126E088316A900831243
:101110006D088316A8002708AF002608AE00250832
:10112000AD002408AC008A118312FF248A15000840
:10113000ED00840A0008EE00840A0008EF00840A2B
:101140000008F000FD308407F708031DBE28710A6F
:1011500083162202031DAE288312BE28200803191D
:10116000C1280F3922020319B72803180129A01B2F
:101170000129201BC1282030F92883122030831632
:10118000A005A01ED328A0127108031DA003770894
:10119000A0002D30A8008A118312E4208A1583163E
:1011A0002008F700A00171082202031DE528770836
:1011B000A0002E30A8008A118312E4208A1583161D
:1011C0002008F7002030A00500303030A01EF9289C
:1011D000A0127108031DA0037708A0002D30A800FD
:1011E0008A118312E4208A1583162008F700A001D3
:1011F0003030F7077708A8008A118312E4208A1597
:1012000083162708AB002608AA002508A900240891
:10121000A800AF01AE01AD010A30AC008A11831203
:10122000FF248A157A088316A7007908A600780893
:10123000A5007708A400A20B7D28831208008A115C
:101240008E208A150730B100AC160230A9002B148D
:10125000AB102B11AB158A11A3228A150A30FB00A3
:101260008A11D0208A158A11B6248A153230FB00E3
:101270008A11D0208A15831686118312861183164F
:10128000A801A701A6010230A5000830A9008A1113
:1012900083125A208A1583168611831286158316A7
:1012A00088178312881B4F290130FD008A11C92439
:1012B0008A157A08E6007908E5007808E4007708DE
:1012C000E3000230FD008A11C9248A157A08EA0079
:1012D0007908E9007808E8007708E7000330FD00A6
:1012E0008A11C9248A157A08EE007908ED00780879
:1012F000EC007708EB000430FD008A11C9248A1540
:101300007A08F2007908F1007808F0007708EF0019
:101310001B3003178D0000308F0003100430F300E2
:101320008A11031308218A152D3003178D00003010
:101330008F008A1103134C218A151E3003178D006C
:1013400000308F0003100530F3008A1103130821C9
:101350008A154A3084006608F6006508F5006408BE
:10136000F4006308F3008A1143258A1520308316A0
:10137000A8008A118312E4208A154A3084006A0882
:10138000F6006908F5006808F4006708F3008A11A0
:1013900043258A1520308316A8008A118312E42081
:1013A0008A154A3084006E08F6006D08F5006C0856
:1013B000F4006B08F3008A1143258A152030831648
:1013C000A8008A118312E4208A154A30840072082A
:1013D000F6007108F5007008F4006F08F3008A1138
:1013E00043258A1520308316A8008A118312E42031
:1013F0008A15E3018A11BC258A15CC30EC008A11CC
:10140000D5258A154430EC008A11D5258A15E308C4
:10141000031D102A8A11F9258A157808E300072A86
:101420008A11BC258A15CC30EC008A11D5258A1585
:10143000BE30EC008A11D5258A158A11F9258A1546
:101440007808E4008A11F9258A157808E50065080E
:10145000E7006408E6006708ED006608EC008E30DF
:10146000F7006D08F8006C08F900FA01ED1F3D2A3D
:10147000F809F909F90A0319F80AF808031D4A2AB4
:101480007908F800F9010830F702F808031D4A2A24
:10149000F701532A0310F81B512AF90DF80DF70331
:1014A0004A2AED1FF8137708EC007808ED00790858
:1014B000EE007A08EF008316A300831279088316E2
:1014C000A200831278088316A1008312770883167E
:1014D000A000A701A601A5018330A4008A118312F0
:1014E0001E268A157A08EB007908EA007808E900D8
:1014F0007708E8006808F7006908F8006A08F9004A
:101500006B08FA007708E3007808E4007908E50042
:101510007A08E600E8010408E7006810831B6814F5
:1015200083106608EC006508EB006408EA006308B5
:10153000E9003330F0009330EF000830EE008730E0
:10154000ED0080308318EE068316A201A3018312FA
:101550006A088316A10083126E088316A1068312FF
:1015600069080319B72B8316A000F70083126D08D2
:101570000319C42B8316A0020319512B031C032B40
:1015800083126E088316A600A61783126F088316AF
:10159000A5007008A400A3010310A60CA50CA40CC0
:1015A000A30CA00BCB2AA11FD82A2214DD2B2210BA
:1015B000201022166C3084008313F22B2212A11B00
:1015C000EB2A201CF62AA60CA50CA40CA30CF70AE7
:1015D0000319D82BF62AA61BF92A0310A30DA40D74
:1015E000A50DA60DF7030319D82BEB2A2217772B8D
:1015F000221383126A088316A100A11F012BA617CC
:10160000D12BA613D12B83126D088316A000F700EF
:10161000831269088316A00283126A088316A60043
:10162000A61783126B088316A50083126C08831615
:10163000A400A3010310A60CA50CA40CA30CA00BE2
:10164000192BA11F262BA214DD2BA2102010A216ED
:10165000703084008313F22BA212A11B392B201CA3
:10166000442BA60CA50CA40CA30CF70A0319D82B29
:10167000442BA61B472B0310A30DA40DA50DA60DEF
:10168000F7030319D82B392BA217772BA213831238
:101690006E088316A100A11F4F2BA617D12BA613EE
:1016A000D12B83126E088316A600A61783126F082B
:1016B0008316A5007008A400A11F622BA613221593
:1016C000DD2B2211A30120106C3084008313F22B38
:1016D000A11B8D2B83126A088316A100201C772B77
:1016E000A60CA50CA40CA30CF70A0319D82BA31F56
:1016F000882BA40A031D882BA50A031D882BA60A84
:10170000031D882BA60CA50CA40CF70A0319D82BD3
:10171000221BF82AA21B462BB02B8030A606A61F40
:10172000972BDD2B83126E088316A100A62B831244
:101730006A088316A100A608031DA62BA508031D91
:10174000A62BA408031DA62BF701D12BA61BB02B9B
:101750000310A30DA40DA50DA60DF70BA62BD82BDA
:10176000A11FB42BA617D12BA613D12B83126D0862
:10177000F7006E088316A60083126F088316A50073
:101780007008A400D12B83126908F7006A08831639
:10179000A60083126B088316A50083126C088316BB
:1017A000A4002608F8002508F9002408FA00102CE7
:1017B000F701F801F901FA01102CA301A409A50908
:1017C000A609A309A30A031DEB2BA40A031DEB2BF7
:1017D000A50A0319A60A2218D72AA218252B22190E
:1017E000612B922B0008A407031CFC2BA50A031DE8
:1017F000FC2BA60A0319201484030008A507031C68
:10180000042CA60A0319201484030008801F803AC0
:10181000A60703182014221ADE2AA21A2C2B682BE2
:101820008312670884008313681883177708E3001E
:101830007808E4007908E5007A08E6008930840039
:101840007A08F0007908EF007808EE007708ED00DC
:101850000230F100002020308316A8008A11831284
:10186000E4208A150D308316A8008A118312E42023
:101870008A150A308316A8008A118312E4208A157B
:101880008A110A16A12EEF01EE0130308316A00056
:101890003130A1003230A2003330A3003430A40034
:1018A0003530A5003630A6003730A7003830A80004
:1018B0003930A9006130AA006230AB006330AC005F
:1018C0006430AD006530AE006630AF006730B00008
:1018D0006830B1006930B2006A30B3006B30B400D8
:1018E0006C30B5006D30B6006E30B7006F30B800A8
:1018F0007030B9007130BA007330BB007430BC0076
:101900007530BD007630BE007730BF007830C00043
:101910007930C1007A30C200C30183126408E90043
:101920006308E8006908FA006808840083137A18DD
:1019300083170008203C031DA12CE80A0319E90ABB
:10194000922C6908FA0068088400831369188317C9
:1019500000082D3C0319B72C6908FA0068088400B8
:1019600083136918831700082B3C031DC32C6908D7
:10197000FA006808E80A0319E90A840083137A1850
:1019800083170008C42C2B30F000E71BD02C670B0A
:10199000CA2CD02CE71BD22C6708243C0318D22C6D
:1019A000322E682DE70803192D2D6708103C031D02
:1019B000FC2C6908FA006808840083137A188317DE
:1019C0000008303C031DFC2C0130680784008313A1
:1019D000691883170008783C0319F82C0130680750
:1019E00084008313691883170008583C031DFC2CDE
:1019F0000230E8070318E90A6708083C031D0F2DA9
:101A00006908FA006808840083137A1883170008AD
:101A1000303C031D0F2D0130E8070318E90A670861
:101A2000023C031D2C2D6908FA006808840083130A
:101A30007A1883170008303C031D2C2D01306807ED
:101A400084008313691883170008623C031D2C2D42
:101A50000230E8070318E90A682D6908FA006808E7
:101A6000840083137A1883170008303C03193B2D38
:101A70000A30E700682D0130680784008313691875
:101A800083170008783C03194F2D01306807840044
:101A90008313691883170008583C031D562D103016
:101AA000E7000230E8070318E90A682D01306807EB
:101AB00084008313691883170008623C031D662D98
:101AC0000230E700E8070318E90A682D0830E7004C
:101AD0006908EB006808EA006908FA0068088400F1
:101AE00083137A1883170008303C031D7B2DE80A06
:101AF0000319E90A6C2D6908FA0068088400831349
:101B0000691883170008F100403C03188E2D7108F6
:101B10005A3C031C8E2D710820388F2D7108F1005E
:101B20008316C601A030C5007108C700831267087C
:101B30008316C8008A11831261278A157908ED007F
:101B40007808EC00EC08031DA82DED0803192A2ED7
:101B5000FA016708F700F71BFA03F1007A08F200B0
:101B60006F088316C70083126E088316C6007208BA
:101B7000C9007108C800470849068039CB00C71F53
:101B8000C62DC609C709C60A0319C70AC91FCD2D24
:101B9000C809C909C80A0319C90A1030CA00F701DF
:101BA000FA01C70CC60C031CDB2D4808F707031805
:101BB000FA0A4908FA07FA0CF70CF90CF80CCA0BE8
:101BC000D12DCB1FE82DF809F909F80A0319F90AF4
:101BD0007908F2007808F100A03083126C02F70057
:101BE0006D08FA000030031C0130FA027708710713
:101BF000EE007208EF007A0803187A0FEF07E80A80
:101C00000319E90A6908FA0068088400831369184F
:101C100083170008F100403C0318152E71085A3C48
:101C2000031C152E71082038162E7108F10083163A
:101C3000C601A030C5007108C7008312670883166B
:101C4000C8008A11831261278A157908ED00780887
:101C5000EC00A22D68086A02031D452E69086B027C
:101C6000031D452E650866040319412E650884008E
:101C7000831366188317840A64088000840363084A
:101C800080000030F800F900612E70082D3C031D23
:101C90004E2EEE09EF09EE0A0319EF0A65086604F5
:101CA00003195D2E65088400831366188317840A60
:101CB000690880008403680880006E08F8006F08D7
:101CC000F90008008A118E208A153230FB008A1133
:101CD000D0208A152B170130AE00AF010730B100BC
:101CE000AC160230A9000130A6006308013A0319BE
:101CF000802E033A0319832E013A0319862E892E6A
:101D00000230B0008A2E0330B0008A2E0430B000BA
:101D10008A2E082FB501B401B301B201BA01B9018D
:101D2000B801B701BE01BD01BC01BB018A11A322EC
:101D30008A150A30FB008A11D0208A158A11B62430
:101D40008A153230FB008A11D0208A158A11862725
:101D50008A15831688178312881FA92E3730031718
:101D60008D0000308F0003100430F3008A1103133C
:101D700008218A153D3003178D0000308F008A112D
:101D800003134C218A153A3003178D0000308F0061
:101D900003100430F3008A11031308218A1501305F
:101DA000E40064086302031CFA2E6408E5000A16C6
:101DB0008A1100280A128A157708E5007808E600DB
:101DC0007908E7007A08E80020308316A8008A1115
:101DD0008312E4208A15893084006808F0006708BF
:101DE000EF006608EE006508ED000630F100002007
:101DF000E40AD12E0D308316A8008A118312E42044
:101E00008A150A308316A8008A118312E4208A15E5
:061E10008A110A16D92E0A
:102000006508013A03190B28033A03190E28013A0F
:102010000319112814280230AD0014280330AD0034
:1020200014280430AD0014280A1240220A16323057
:10203000FB000A12D0200A160A1299270A167908FC
:10204000FA0078080739EE00EF016E08FD000A1269
:10205000C9240A167A08E9007908E8007808E70038
:102060007708E6002908FC3E03181F2A043E2A2AA6
:102070006908FE006808FD006708FC006608FB00B0
:102080000A12BD270A167A088316A3007908A2004F
:102090007808A1007708A000A701A601A5018F304C
:1020A000A4000A1283121E260A167708EE0078088A
:1020B000EF007908F0007A08F1008316AB00700891
:1020C000AA0083126F088316A90083126E08831674
:1020D000A800AF012430AE007430AD009230AC00E7
:1020E0000A128312EA260A167708EE007808EF0033
:1020F0007908F0007A08F1008316A3007008A200A6
:1021000083126F088316A10083126E088316A00045
:10211000A7011B30A6003730A5009530A4000A1295
:1021200083121E260A167A08ED007908EC0078085A
:10213000EB007708EA001F2A6908FE006808FD0026
:102140006708FC006608FB000A12BD270A167A0819
:102150008316A3007908A2007808A1007708A000E0
:10216000A701A601A5018F30A4000A1283121E2622
:102170000A167708EE007808EF007908F0007A0870
:10218000F1008316AB007008AA0083126F08831653
:10219000A90083126E088316A800AF012430AE0098
:1021A0007430AD009230AC000A128312EA260A168F
:1021B0007708EE007808EF007908F0007A08F1005F
:1021C0008316A3007008A20083126F088316A10073
:1021D00083126E088316A000A7011B30A6003730BB
:1021E000A5009530A4000A1283121E260A1677084D
:1021F000EE007808EF007908F0007A08F100831605
:10220000AB007008AA0083126F088316A90083121E
:102210006E088316A800AF01AE01AD018030AC009E
:102220000A128312EA260A167A08ED007908EC00F1
:102230007808EB007708EA001F2A6908FE006808A2
:10224000FD006708FC006608FB000A12BD270A169D
:102250007A088316A3007908A2007808A1007708FD
:10226000A000A701A601A5018F30A4000A128312C5
:102270001E260A167708EE007808EF007908F000AD
:102280007A08F1008316AB007008AA0083126F0869
:102290008316A90083126E088316A800AF012430AC
:1022A000AE007430AD009230AC000A128312EA2600
:1022B0000A167708EE007808EF007908F0007A082F
:1022C000F1008316A3007008A20083126F08831622
:1022D000A10083126E088316A000A7011B30A60080
:1022E0003730A5009530A4000A1283121E260A1664
:1022F0007708EE007808EF007908F0007A08F1001E
:102300008316AB007008AA0083126F088316A90019
:1023100083126E088316A800AF01AE01AD018130B3
:10232000AC000A128312EA260A167A08ED00790830
:10233000EC007808EB007708EA001F2A6908FE0025
:102340006808FD006708FC006608FB000A12BD274C
:102350000A167A088316A3007908A2007808A1005B
:102360007708A000A701A601A5018F30A4000A12DA
:1023700083121E260A167708EE007808EF00790807
:10238000F0007A08F1008316AB007008AA008312EF
:102390006F088316A90083126E088316A800AF0188
:1023A0002430AE007430AD009230AC000A128312BB
:1023B000EA260A167708EE007808EF007908F000A0
:1023C0007A08F1008316A3007008A20083126F0838
:1023D0008316A10083126E088316A000A7011B308C
:1023E000A6003730A5009530A4000A1283121E26DD
:1023F0000A167708EE007808EF007908F0007A08EE
:10240000F1008316AB007008AA0083126F088316D0
:10241000A90083126E088316A800AF01AE01AD01BA
:102420008230AC000A128312EA260A167A08ED00FE
:102430007908EC007808EB007708EA001F2A6A08A0
:10244000F7006B08F8006C08F9006D08FA008A15AF
:102450000A12DA2E0A108A140A11820738289C28D8
:102460001D299E290A30FB000A12D0200A166A088C
:10247000FB3E03185F2A053E6F2CAE015F2A690BF5
:10248000442A0130AE00462A0930AE005F2A690BAB
:102490004C2A0230AE004E2A0A30AE005F2A690B89
:1024A000542A0330AE00562A0B30AE005F2A690B67
:1024B0005C2A0430AE005E2A0C30AE005F2A6C0845
:1024C000FB3E0318872A053E782CAD01872A6B0B4B
:1024D0006C2A0130AD006E2A0930AD00872A6B0BE3
:1024E000742A0230AD00762A0A30AD00872A6B0BC1
:1024F0007C2A0330AD007E2A0B30AD00872A6B0B9F
:10250000842A0430AD00862A0C30AD00872A0A12D6
:1025100040220A163230FB000A12D0200A160A1294
:1025200099270A167908FA0078080739FB00FC0198
:102530007B08FD000A12C9240A167A08F0007908FF
:10254000EF007808EE007708ED002908FC3E03183C
:10255000662C043E812C7008FE006F08FD006E089A
:10256000FC006D08FB000A12BD270A167A088316C4
:10257000A3007908A2007808A1007708A000A701AD
:10258000A601A5018F30A4000A1283121E260A1686
:102590007708FB007808FC007908FD007A08FE0047
:1025A0008316AB007D08AA007C08A9007B08A80060
:1025B000AF012430AE007430AD009230AC000A128E
:1025C0008312EA260A167708FB007808FC007908CF
:1025D000FD007A08FE008316A3007D08A2007C0897
:1025E000A1007B08A000A7011B30A6003730A50082
:1025F0009530A4000A1283121E260A167A08F400E7
:102600007908F3007808F2007708F100662C70086A
:10261000FE006F08FD006E08FC006D08FB000A124A
:10262000BD270A167A088316A3007908A200780845
:10263000A1007708A000A701A601A5018F30A40082
:102640000A1283121E260A167708FB007808FC007F
:102650007908FD007A08FE008316AB007D08AA0009
:102660007C08A9007B08A800AF012430AE007430BC
:10267000AD009230AC000A128312EA260A167708DF
:10268000FB007808FC007908FD007A08FE0083163C
:10269000A3007D08A2007C08A1007B08A000A70180
:1026A0001B30A6003730A5009530A4000A12831213
:1026B0001E260A167708FB007808FC007908FD0042
:1026C0007A08FE008316AB007D08AA007C08A900EA
:1026D0007B08A800AF01AE01AD018030AC000A124A
:1026E0008312EA260A167A08F4007908F3007808BB
:1026F000F2007708F100662C7008FE006F08FD00FC
:102700006E08FC006D08FB000A12BD270A167A0845
:102710008316A3007908A2007808A1007708A0001A
:10272000A701A601A5018F30A4000A1283121E265C
:102730000A167708FB007808FC007908FD007A0883
:10274000FE008316AB007D08AA007C08A9007B0868
:10275000A800AF012430AE007430AD009230AC0060
:102760000A128312EA260A167708FB007808FC0092
:102770007908FD007A08FE008316A3007D08A200F8
:102780007C08A1007B08A000A7011B30A600373001
:10279000A5009530A4000A1283121E260A16770897
:1027A000FB007808FC007908FD007A08FE0083161B
:1027B000AB007D08AA007C08A9007B08A800AF0137
:1027C000AE01AD018130AC000A128312EA260A166E
:1027D0007A08F4007908F3007808F2007708F1002D
:1027E000662C7008FE006F08FD006E08FC006D0886
:1027F000FB000A12BD270A167A088316A30079087F
:10280000A2007808A1007708A000A701A601A501F1
:102810008F30A4000A1283121E260A167708FB00C6
:102820007808FC007908FD007A08FE008316AB00EA
:102830007D08AA007C08A9007B08A800AF0124300D
:10284000AE007430AD009230AC000A128312EA265A
:102850000A167708FB007808FC007908FD007A0862
:10286000FE008316A3007D08A2007C08A1007B085F
:10287000A000A7011B30A6003730A5009530A400AA
:102880000A1283121E260A167708FB007808FC003D
:102890007908FD007A08FE008316AB007D08AA00C7
:1028A0007C08A9007B08A800AF01AE01AD01823011
:1028B000AC000A128312EA260A167A08F400790894
:1028C000F3007808F2007708F100662C7108F70031
:1028D0007208F8007308F9007408FA0008000A107A
:1028E0008A100A1582073D2A3F2A472A4F2A572A6B
:1028F0000A108A100A158207652A672A6F2A772A22
:102900007F2A0A108A100A158207AB2A072B7C2B14
:10291000F12B0A128E200A163230FB000A12D02048
:102920000A160730B100AC16A9010130A6002B161B
:10293000AB12AC152C162B130530AE00AD00B50153
:10294000B401B301B201BA01B901B801B701BE01C6
:10295000BD01BC01BB0164080319BB2C013A03197A
:10296000BD2C033A0319C02C013A0319C32C073AB2
:102970000319C62CC92CAF01CA2C0130AF00CA2CD8
:102980000230AF00CA2C0330AF00CA2C0430AF00B5
:10299000CA2C7C2D63080319DA2C013A0319DC2CAC
:1029A000033A0319DF2C013A0319E22C073A031901
:1029B000E52CE82CB001E92C0130B000E92C023004
:1029C000B000E92C0330B000E92C0430B000E92C51
:1029D0007C2D0A12A3220A163230FB000A12D020E4
:1029E0000A160A12B6240A160A1286270A16643034
:1029F000FB000A12D0200A16831688178312881F3C
:102A0000FC2C0A30FB000A12D0200A162F300317C4
:102A10008D0000308F0003100430F3000A120313FE
:102A200008210A16353003178D0000308F000A1276
:102A300003134C210A16323003178D0000308F002B
:102A400003100430F3000A12031308210A160130A0
:102A5000E900EA00EB00EC0132227708E500780893
:102A6000E6007908E7007A08E8000230E900013062
:102A7000EA000230EB00EC0132227708E900780826
:102A8000EA007908EB007A08EC00893084006808D5
:102A9000F0006708EF006608EE006508ED000630FC
:102AA000F1000A128A1500200A168A1120308316B6
:102AB000A8000A128312E4200A16893084006C08E8
:102AC000F0006B08EF006A08EE006908ED000630C0
:102AD000F1000A128A1500200A168A110D30831699
:102AE000A8000A128312E4200A160A308316A800EE
:102AF0000A128312E4200A168A110A16232F84016F
:102B000083131F308305831686138312861783165B
:102B100086140610061183120611A6010130A700C3
:102B2000A801A901AA002B14AB102B11AB152B1671
:102B3000AB122B17AB132C10AC100530AD00AE0050
:102B40002C11AF01B0010130B100AC112C12B50154
:102B5000B401B301B201AC120330B600BA01B9013D
:102B6000B801B701BE01BD01BC01BB01BF012C13FF
:102B7000AC17C001C201C101831603170908C0398F
:102B8000890003131F129F1200300317880083125D
:102B90008701880189010313A001A101FF30C3004F
:102BA000831603170908C039890003131F129F12E7
:102BB000003003178800831203131F139F1383161B
:102BC0009F1383121F149412C312430883168700A5
:102BD000831243164308831687008312C3114308E8
:102BE000831687000130831294000030831694000E
:102BF0000108C73908388100831290010030F800BD
:102C00009200003083169200831243154308831606
:102C100087008312970183169B019C0101309D0060
:102C2000831203178701880189010A1203138E207A
:102C30000A163230FB000A12D0200A163F30031762
:102C40008D0000308F0003100930F3000A120313C7
:102C500008210A16513003178D0000308F000A1228
:102C600003134C210A16443003178D0000308F00E7
:102C700003141830F3000A12031308210A16533004
:102C800003178D0000308F0003100430F3000A1288
:102C9000031308210A16583003178D0000308F00E7
:102CA0000A1203134C210A162D308316A8000A12AB
:102CB0008312E4200A163E308316A8000A128312FB
:102CC000E4200A16E4014430E3001430E5000A125F
:102CD0008A290A164430840083130A12D7290A1657
:102CE0000D308316A8000A128312E4200A160A3057
:102CF0008316A8000A128312E4200A16E301E401F5
:102D00005830840083136308840764080A1204207F
:102D10000A16800000380319902EE40AE30A802E78
:102D2000E4014430E300E6015830E5000230E700FA
:102D30000A12F1210A16F808031DA32E0A128A1599
:102D40001F290A168A11E301E40158308400831315
:102D50006308840764080A120B200A1680000038F2
:102D60000319B52EE40AE30AA52EE4014430E3007A
:102D7000E6015830E5000330E7000A12F1210A1697
:102D8000F808031DDB2EE4014730E300E6015D3067
:102D9000E5000A30E7000A128A1543240A168A1150
:102DA0007908E0007808DF005F08E3000A128A155E
:102DB000622E0A168A11E301E4015830840083135D
:102DC0006308840764080A1213200A16800000387A
:102DD0000319ED2EE40AE30ADD2EE4014430E3009A
:102DE000E6015830E5000330E7000A12F1210A1627
:102DF000F808031D232FE4014730E300E6015D30AE
:102E0000E5000A30E7000A128A1543240A168A11DF
:102E10007908E0007808DF005E08E4005D08E30060
:102E2000E6015D30E5000A30E7000A128A15432406
:102E30000A168A117908E2007808E1005F08E300C9
:0A2E40006108E400892C3F2E6300B6
:04400E00F22CFF3F52
:00000001FF
;PIC16F887
;CRC=39F6  CREATED="10-9-11 21:40"
