:100000003CEF01F04250200807E0436E3E363F3699
:1000100040364136432EFAD79382939093948A9434
:1000200042C043F08A8441AE8A9041BE8A803E3607
:100030003F36403641368A94003601360236033662
:1000400081A2009081B20080432EECD7000C9396E1
:100050008A96416A406A3F6A500E3E6E080E426EB2
:10006000D1DF93968A86000CEA6A2D0EE96EEF5076
:100070000DE0060E016E006A002EFED7012EFBD7A2
:100080007B0E006E002EFED7EF2EF3D7000C93965A
:100090008A96B00E3824FF0F3D6E416A406A3F6A6F
:1000A0003E6E080E426EAEDF416A406A3F6A3E6AAB
:1000B000200E426EA7DF015003C03CF002C03BF0AF
:1000C00001C03AF000C039F093968A8639C000F03A
:1000D0003AC001F03BC002F03CC003F0000C939E1C
:1000E0008A9E080E016E00D00000018E0ED0019E87
:1000F0004332D8B08A8ED8A08A9E018C06D0019C4B
:10010000012EF6D700D000008A8EA70EE96EE92EE8
:10011000FED700D001BEEBD701BCF1D7000C3DBE2D
:100120000FD00F0E006E3C3800160A0E005C03E282
:10013000300E002602D03D50002600C043F0CFDF35
:100140000F0E3C160A0E3C5C02E2300E02D03D9EC1
:100150003D503C263CC043F0C2DF000CEACF42F0E9
:10016000E9CF41F03B38F0093D6E3D26E20F3E6E8F
:10017000320F406E3B500F0B3E263E264026E90FC5
:100180003F6E3F263F263A380F0B3F2640263F362C
:100190004036401E40363A500F0B40263D36070E83
:1001A0003C6E0A0E3F064026FDE33E063F26FDE379
:1001B0003D063E26FDE33C063D26FDE3EA6A3C0E95
:1001C000E96E070E4114419CE926400EE95CD8B463
:1001D000418CEF50006E08E141BC06D041B813D00D
:1001E00041B602D0200E03D041864198300E002641
:1001F000EACF3BF0E9CF3AF000C043F070DF3BC0FC
:10020000EAFF3AC0E9FFEE5041ACDFD7000C93960D
:100210008A96416A406A3F6AB50E3E6E080E426E8B
:10022000F1DE416A406A3F6A3E6A080E426EEADECB
:10023000015000C02CF093968A862CC001F0000C6F
:1002400093968A96416A406A3F6A700E3E6E080E27
:10025000426ED8DE93968A86A2EF03F093968A9632
:10026000416A406A3F6A010E3E6E080E426ECADE67
:1002700093968A86A6EF03F0F86AD09EEA6AE96A46
:10028000939E8A8E9382939093948A94046A010E2B
:10029000056E066A076A086E098009920994098644
:1002A0000988099A098C099E0A900A92050E0B6E1C
:1002B0000C6E0A940D6A0E6A010E0F6E0A960A9869
:1002C000136A126A116A106A0A9A030E146E186A87
:1002D000176A166A156A1C6A1B6A1A6A196A1D6A05
:1002E0000A9C0A8E1E6A206A1F6AC150C00B0F0941
:1002F000C16E070EB46EC150C00B0F09C16EC09025
:10030000C092C094C09EC2809698C69A949E9380D4
:100310009392010EC66E000EC76ED190800ED56E00
:10032000CD6A000ECA6E000ECB6E9484BD6AB76AA9
:10033000B66A070EB46E9250926E100E006E002ECA
:10034000FED70000B450A19CB56A81DE95988C98C8
:10035000959A8C9A959C8C9C320E2D6E85DE640E3F
:100360002D6E82DE74DE640E2D6E7EDE93968A968E
:10037000246A236A226A216A800E246E236A226A12
:10038000216A680E2112340E221224C041F023C0CB
:1003900040F022C03FF021C03EF0200E426E32DE1F
:1003A00093968A8693968A96246A236A226A216A99
:1003B000810E246E236A226A216A440E2212210EC3
:1003C000231224C041F023C040F022C03FF021C0DE
:1003D0003EF0200E426E16DE93968A8693968A969B
:1003E000246A236A226A216A820E246E236A226AA0
:1003F000216A380E231224C041F023C040F022C0ED
:100400003FF021C03EF0200E426EFCDD93968A86BE
:1004100093968A96246A236A226A216A830E246E3E
:10042000236A226A216A380E231224C041F023C0B5
:1004300040F022C03FF021C03EF0200E426EE2DDCF
:1004400093968A8693968A96246A236A226A216AF8
:10045000840E246E236A226A216A238A24C041F012
:1004600023C040F022C03FF021C03EF0200E426E7B
:10047000C9DD93968A8693968A96246A236A226AAD
:10048000216A850E246E236A226A216A24C041F003
:1004900023C040F022C03FF021C03EF0200E426E4B
:1004A000B1DD93968A86010E386EF1DD03C02FF020
:1004B00002C02EF001C02DF000C02CF0020E386EEC
:1004C000E6DD03C033F002C032F001C031F000C0FD
:1004D00030F0030E386EDBDD03C037F002C036F0BB
:1004E00001C035F000C034F0040E386ED0DD03C01A
:1004F0003BF002C03AF001C039F000C038F02D0ED8
:10050000436EEDDD200E436EEADD2FC03CF0370E6A
:100510003D6E05DE2EC03CF0370E3D6E00DE2DC078
:100520003CF0370E3D6EFBDD2CC03CF0370E3D6ECF
:10053000F6DD200E436ED3DD33C03CF0370E3D6E4A
:10054000EEDD32C03CF0370E3D6EE9DD31C03CF0EF
:10055000370E3D6EE4DD30C03CF0370E3D6EDFDD22
:10056000200E436EBCDD37C03CF0370E3D6ED7DD4C
:1005700036C03CF0370E3D6ED2DD35C03CF0370E54
:100580003D6ECDDD34C03CF0370E3D6EC8DD200E33
:10059000436EA5DD3BC03CF0370E3D6EC0DD3AC07A
:1005A0003CF0370E3D6EBBDD39C03CF0370E3D6E82
:1005B000B6DD38C03CF0370E3D6EB1DD200E436E27
:1005C0008EDD93968A96276AB40E276E416A406A3A
:1005D0003F6A27C03EF0080E426E14DD416A406A51
:1005E0003F6A3E6A100E426E0DDD015001C026F0DA
:1005F00000C025F093968A862638026E036A0F0E95
:1006000002160250010B2C6E2D6A036A2630026E10
:10061000023202321F0E02160250010B2E6E2F6A9A
:10062000036A2630026E02323F0E02160250010BA0
:10063000306E316AD890036A2630026E010B326E3A
:10064000336A2630036E2530026E033202320332E3
:100650000232033202320332023203320232030E1A
:1006600003160250070B346E356A2630036E2530B0
:10067000026E03320232033202321F0E03160250A0
:10068000070B366E376A2550070B386E396A5B0EDA
:10069000436E25DD100EE96E2DC03BF02CC03AF004
:1006A0005DDD200E436E1BDD100EE96E2FC03BF0AA
:1006B0002EC03AF053DD200E436E11DD100EE96EB0
:1006C00031C03BF030C03AF049DD200E436E07DD0B
:1006D000100EE96E33C03BF032C03AF03FDD200E21
:1006E000436EFDDC100EE96E35C03BF034C03AF0CD
:1006F00035DD200E436EF3DC100EE96E37C03BF0A3
:1007000036C03AF02BDD200E436EE9DC100EE96EA8
:1007100039C03BF038C03AF021DD5D0E436EDFDCBE
:10072000200E436EDCDC73DD01C02CF001C03CF018
:10073000370E3D6EF4DC0D0E436ED1DC0A0E436EB7
:10074000CEDC7ED5320E2D6E8FDC88D5C80E2D6E98
:100750008BDC959C8C8C95988C8895988C9800D087
:1007600000D00000959A8C8A959A8C9A00D000D07F
:100770000000959A8C8A959A8C9A00D000D000003F
:10078000959A8C8A959A8C9A00D000D000002B6A9A
:100790002A6A296A030E286E2B52D8A4B0D12A5295
:1007A000D8A4ADD12952D8A4AAD128500508D8A0E0
:1007B000A6D1020E2C6EFA0E2D6E56DC2C2EFBD717
:1007C000010E386E64DC03C02FF002C02EF001C0B1
:1007D0002DF000C02CF0020E386E59DC03C033F04F
:1007E00002C032F001C031F000C030F0030E386EAC
:1007F0004EDC03C037F002C036F001C035F000C057
:1008000034F0040E386E43DC03C03BF002C03AF013
:1008100001C039F000C038F02A0E436E60DC200EB3
:10082000436E5DDC2FC03CF0370E3D6E78DC2EC091
:100830003CF0370E3D6E73DC2DC03CF0370E3D6E44
:100840006EDC2CC03CF0370E3D6E69DC200E436E32
:1008500046DC33C03CF0370E3D6E61DC32C03CF00C
:10086000370E3D6E5CDC31C03CF0370E3D6E57DC20
:1008700030C03CF0370E3D6E52DC200E436E2FDC54
:1008800037C03CF0370E3D6E4ADC36C03CF0370EC8
:100890003D6E45DC35C03CF0370E3D6E40DC34C06B
:1008A0003CF0370E3D6E3BDC200E436E18DC3BC047
:1008B0003CF0370E3D6E33DC3AC03CF0370E3D6EF7
:1008C0002EDC39C03CF0370E3D6E29DC38C03CF0E0
:1008D000370E3D6E24DC200E436E01DC93968A9623
:1008E000276AB40E276E416A406A3F6A27C03EF00D
:1008F000080E426E02EC00F0416A406A3F6A3E6AAE
:10090000100E426E02EC00F0015001C026F000C053
:1009100025F093968A862638026E036A0F0E021619
:100920000250010B2C6E2D6A036A2630026E0232D1
:1009300002321F0E02160250010B2E6E2F6A036A3E
:100940002630026E02323F0E02160250010B306E4C
:10095000316AD890036A2630026E010B326E336A18
:100960002630036E2530026E033202320332023229
:10097000033202320332023203320232030E031612
:100980000250070B346E356A2630036E2530026E36
:1009900003320232033202321F0E03160250070BDB
:1009A000366E376A2550070B386E396A5B0E436E18
:1009B0006FEC00F0100EE96E2DC03BF02CC03AF049
:1009C000AEEC00F0200E436E6FEC00F0100EE96EFE
:1009D0002FC03BF02EC03AF0AEEC00F0200E436E7C
:1009E0006FEC00F0100EE96E31C03BF030C03AF011
:1009F000AEEC00F0200E436E6FEC00F0100EE96ECE
:100A000033C03BF032C03AF0AEEC00F0200E436E43
:100A10006FEC00F0100EE96E35C03BF034C03AF0D8
:100A2000AEEC00F0200E436E6FEC00F0100EE96E9D
:100A300037C03BF036C03AF0AEEC00F0200E436E0B
:100A40006FEC00F0100EE96E39C03BF038C03AF0A0
:100A5000AEEC00F05D0E436E6FEC00F0200E436EC6
:100A60006FEC00F007EC01F001C02CF001C03CF08D
:100A7000370E3D6E8FEC00F00D0E436E6FEC00F004
:100A80000A0E436E6FEC00F093968A96246A236AEE
:100A9000226A216A810E246E236A226A216A2D6AE3
:100AA0002E6A28342F6E2934306E2F3630362F368A
:100AB00030362F363036F00E2F162F802E8C2E84A7
:100AC0002D5021122E5022122F502312305024125A
:100AD00024C041F023C040F022C03FF021C03EF0CE
:100AE000200E426E02EC00F093968A86010E2826B4
:100AF000D8B0292AD8B42A2AD8B42B2A4DD62FD434
:020B00000300F0
:020000040030CA
:0E00000027CC390E0087A1000FC00FE00F4083
:00000001FF
;PIC18F4550
;CRC=0024  CREATED="25-IV-11 19:49"
