:10000000D0EF00F07265743A20254C58200A0000A9
:100010000A50200807E00B6E063607360836093608
:100020000B2EFAD79382939093948A940AC00BF084
:100030008A8409AE8A9009BE8A8006360736083659
:1000400009368A94003601360236033681A20090C2
:1000500081B200800B2EECD7000C93968A96096A29
:10006000086A076A500E066E200E0A6ED1DF93965C
:100070008A860BEF01F093968A96096A086A076AE6
:10008000810E066E080E0A6EC3DF096A220E086E24
:10009000400E076E066A180E0A6EBADF93968A86BD
:1000A0000CEF01F0EA6A060EE96EEF500DE0060E65
:1000B000016E006A002EFED7012EFBD77B0E006E6C
:1000C000002EFED7EF2EF3D711EF01F093968A960C
:1000D000096A086A076AB50E066E080E0A6E98DF8E
:1000E000096A086A076A066A080E0A6E91DF0150FB
:1000F00000C005F093968A8605C001F014EF01F068
:10010000939E8A9E080E016E00D00000018E0ED0D4
:10011000019E0932D8B08A8ED8A08A9E018C06D062
:10012000019C012EF6D700D000008A8EA70EE96E42
:10013000E92EFED700D001BEEBD701BCF1D7000CF1
:100140000900F6CF07F0F7CF08F0F5CF09F0D8DFB8
:1001500007C0F6FF08C0F7FF062EF2D71DEF01F02B
:1001600007BE0FD00F0E006E063800160A0E005C98
:1001700003E2300E002602D00750002600C009F02E
:10018000BFDF0F0E06160A0E065C02E2300E02D02A
:10019000079E0750062606C009F0B2DF22EF01F0E5
:1001A000F86AD09EEA6AE96A939E8A8E9382939057
:1001B00093948A94C150C00B0F09C16E070EB46EA0
:1001C000C150C00B0F09C16EC090C092C094C09EB8
:1001D000C2809698C69A949E93809392010EC66EA2
:1001E000000EC76ED190800ED56ECD6A000ECA6E1D
:1001F000000ECB6E9484BD6AB76AB66A070EB46E01
:100200009250926E100E006E002EFED70000B45079
:10021000A19CB56A22D72FD7020E056EFA0E066E84
:1002200041D7052EFBD752D701C005F0040EF66E5C
:10023000000EF76E050E066E83D705C006F0370E6A
:10024000076E8ED7200E096E5BDF0A0E096E58DF2F
:04025000E3D70300ED
:020000040030CA
:0E00000027CC390E0087A1000FC00FE00F4083
:00000001FF
;PIC18F4550
;CRC=1441  CREATED="02-1-11 15:23"
