:1000000015308A007F2D00000A108A100A1182071D
:1000100054344D3400340A108A100A1182074D34CA
:100020003234203400340A108A100A1182074D3409
:10003000313420340034242AC421A539202A4D2803
:10004000A0123118CC2AA0123118CC2AA0123118D3
:10005000CC2AA0123118CC2A200030173200242AD2
:10006000C421A539A0263110000130173200242AFE
:10007000C421A539A02632100001301732000D0529
:100080000D0523105422C3127310A8212910321811
:10009000B1182025E1357531A025E1356F376110A4
:1000A000EB306B36E935C036EC306217633D0D0539
:1000B000000130173200242AC421A5392D1F000168
:1000C0003017320083162908203C03196E28AA0035
:1000D000A50DA60DA70DA80DAA0B6828861406105D
:1000E00006118312061183162908AA008312061529
:1000F0008316A81B7E28831206108316A81F832848
:10010000831206148316A50DA60DA70DA80D831244
:100110000611F70DF80DF90DFA0D861C77108618EB
:1001200077148316AA0B762883120800831686118B
:10013000831286118316A801A701A6015030A500DD
:100140000830A90083126220831686118312861557
:10015000A6010130A700A801A901AA002B14AB1029
:100160002B11AB152B16AB122B17AB132C10AC109D
:100170000530AD00AE002C11AF01B0010130B1006F
:10018000AC112C12AC120330B600B501B401B301AE
:10019000B201BA01B901B801B701BE01BD01BC018C
:1001A000BB01BF012C13AC17C001C201C101080083
:1001B0007B308400831300080319EB280630F80015
:1001C000F701F70BE128F80BE0287B30F700F70B7D
:1001D000E728800BDE280800831686138312861317
:1001E0000830F800F3280000F8170629F8138316E2
:1001F000A80C831203188617031C86137817062988
:100200007813F80BF728042900008617A73084001C
:10021000840B08290B29F81BF628781B00290800F5
:10022000831603178C170C140000000003183329E1
:1002300083120C087F39F4000D08F5000F08F60052
:10024000740883160313A8008312EC2075080317A3
:100250008D0076088F0083168C170C1400000000A8
:10026000F30B3329512983120C0D0E0D7F39F40045
:100270000D08F5000F08F600740883160313A80094
:100280008312EC20750803178D0076088F008D0A05
:1002900003198F0A0310F30B4E2950290313102959
:1002A0008316831203130800831603178C170C148C
:1002B0000000000083120C087F3903199029F30015
:1002C0000D08F4000F08F500730883160313A80047
:1002D0008312EC20740803178D0075088F008316B5
:1002E0008C170C140000000083120C0D0E0D7F39CA
:1002F00003199029F3000D08F4000F08F5007308A6
:1003000083160313A8008312EC20740803178D00D2
:1003100075088F008D0A03198F0A031354290317D8
:1003200003130800E601E701831606178312061B74
:1003300097290830F700E801F717AC29F713AC2923
:100340000310061B0314E80C7717AC297713F70B7F
:10035000A0296808F800B829A730F71B2D30F8004D
:10036000F80BB0290000F71B9E29771BA629A029AE
:100370007808E6000D3C0319D52967086307840057
:1003800083136418831766088000023065026702D1
:10039000031DD329013067076307840083136418A2
:1003A00083178001DC29E70A942967086307840022
:1003B00083136418831780018A110A16692E800836
:1003C0000319F629E4010408E3006410831B641494
:1003D00000088316A8008312EC20630884008313AE
:1003E00064188317840A0319850ADF298A110A16FB
:1003F0006F2EE7080319452A6408FA006308840091
:1004000083137A1883170008E8006608FA00650865
:10041000840083137A1883170008680203192A2AB4
:100420006408FA006308840083137A1883170008AD
:10043000E8006608FA006508840083137A188317B9
:10044000000868020318262AFF30272A0130F80026
:10045000472A372A6408FA006308840083137A184D
:1004600083178008031D372A0030F800472A6408E4
:10047000FA006308E30A0319E40A6608FA0065084B
:10048000E50A0319E60AE703F9290030F800080035
:1004900083168611831286118316A801A701A6016F
:1004A0008130A5000830A900831262208316A801BC
:1004B000A701A60183122D088316A5000430A90008
:1004C000831262208316A801A701A60183122E08B9
:1004D0008316A5000430A9008312622000302C1975
:1004E0000130FB008316A801A701A6017B08A50027
:1004F0000130A900831262208316A801A701A6017A
:100500000130A500A900831262208316A801A7016B
:10051000A60183122F088316A5000330A9008312B9
:1005200062208316A801A701A60183123008831652
:10053000A5000330A900831262208316A801A70139
:10054000A601A5010830A900831262208316861136
:10055000831286150800831686118312861183166E
:10056000A801A701A6018030A5000830A9008312C8
:1005700062208316A801A701A6018312260883160C
:10058000A5000430A900831262208316A801A701E8
:10059000A601831227088316A5000430A900831240
:1005A00062208316A801A701A601831228088316DA
:1005B000A5000230A900831262208316A801A701BA
:1005C000A601831229088316A5000230A900831210
:1005D00062208316A801A701A60183122A088316A8
:1005E000A5000230A9008312622000302B180130D0
:1005F000E5008316A801A701A601831265088316EA
:10060000A5000130A900831262200030AB18013030
:10061000E5008316A801A701A601831265088316C9
:10062000A5000130A9008312622000302B1901308F
:10063000E5008316A801A701A601831265088316A9
:10064000A5000130A900831262200030AB190130EF
:10065000E5008316A801A701A60183126508831689
:10066000A5000130A9008312622000302B1A01304E
:10067000E5008316A801A701A60183126508831669
:10068000A5000130A900831262200030AB1A0130AE
:10069000E5008316A801A701A60183126508831649
:1006A000A5000130A9008312622000302B1B01300D
:1006B000E5008316A801A701A60183126508831629
:1006C000A5000130A900831262200030AB1B01306D
:1006D000E5008316A801A701A60183126508831609
:1006E000A5000130A9008312622000302C180130CF
:1006F000E5008316A801A701A601831265088316E9
:10070000A5000130A900831262200030AC1801302E
:10071000E5008316A801A701A601831265088316C8
:10072000A5000130A900831262208316861183126E
:100730008615482283168611831286118316A80116
:10074000A701A6018230A5002030A90083126220F3
:100750008316A801A701A601831231088316A500FC
:100760000330A900831262200030AC190130E5008B
:100770008316A801A701A601831265088316A500A8
:100780000130A9008312622000302C1A0130E500EC
:100790008316A801A701A601831265088316A50088
:1007A0000130A9008312622035088316A800831245
:1007B00034088316A700831233088316A600831219
:1007C00032088316A5001330A90083126220831615
:1007D000861183128615831686118312861183165D
:1007E000A801A701A6018330A5002030A90083122B
:1007F00062208316A801A701A601A5010230A90065
:10080000831262200030AC1A0130E5008316A80183
:10081000A701A601831265088316A5000130A9006F
:10082000831262208316A801A701A601831236084D
:100830008316A5000230A900831262203A088316AD
:10084000A800831239088316A7008312380883167C
:10085000A600831237088316A5001330A90083125F
:1008600062208316861183128615831686118312E1
:1008700086118316A801A701A6018430A5002030A7
:10088000A900831262208316A801A701A6010430E3
:10089000A5000530A900831262203E088316A80037
:1008A00083123D088316A70083123C088316A60016
:1008B00083123B088316A5001330A900831262201F
:1008C000831686118312861583168611831286116C
:1008D0008316A801A701A6018530A5002030A90034
:1008E000831262208316A801A701A60183123F0884
:1008F0008316A5000330A9008312622000302C1B50
:100900000130E5008316A801A701A601831265083E
:100910008316A5000130A900831262200030AC1BB1
:100920000130E5008316A801A701A601831265081E
:100930008316A5000130A900831262208316A80146
:10094000A701A601831240088316A5000330A90061
:10095000831262208316A801A7018312420883161E
:10096000A600831241088316A5001030A900831247
:10097000622083168611831286150800831686115D
:10098000831286118316A801A701A6017030A50065
:100990000830A900831262208316861183128615FF
:1009A00008008316A301A201A101A00186118312F0
:1009B0008611B0307D07FF3EFE008316A801A70117
:1009C000A6017E08A5000830A900831262208316C4
:1009D000A801A701A601A5012030A9008312622069
:1009E0007A088316A3007908A2007808A100770886
:1009F000A00086118312861583162008F7002108AF
:100A0000F8002208F9002308FA0083120800F70111
:100A1000F801F901FA018316B001B101B201B30185
:100A20002F082E042D042C040319462D2030B40069
:100A30000310A80DA90DAA0DAB0DB00DB10DB20D8F
:100A4000B30D2F083302031D2F2D2E083202031D74
:100A50002F2D2D083102031D2F2D2C083002031CD1
:100A6000402D2C08B0022D08031C2D0FB1022E08BA
:100A7000031C2E0FB2022F08031C2F0FB302031406
:100A8000F70DF80DF90DFA0DB40B182DB0308400E8
:100A900083138312080004088316A0003B30A700CC
:100AA0009A30A600CA30A500A4010A30A200760838
:100AB000AB007508AA007408A9007308A8002708ED
:100AC000AF002608AE002508AD002408AC00831254
:100AD00007250008F300840A0008F400840A0008CF
:100AE000F500840A0008F600FD308407F708031DAE
:100AF000902D83162208013A031D802D8312902D1C
:100B000020080319922D0F3922020319892D031889
:100B1000992DA01B992D201B922D2030932D8312EF
:100B20008316A0013030F7077708A8008312EC2065
:100B300083162708AB002608AA002508A900240868
:100B4000A800AF01AE01AD010A30AC008312072549
:100B50007A088316A7007908A6007808A500770808
:100B6000A400A20B572D831208000330ED02031CD2
:100B7000C32D6D308400831300080319C32DC12DCC
:100B8000C12D800BC02D0800831609118312091195
:100B90000230EC00F930ED00B525EC0BCA2D8316C0
:100BA000091502308312EC00F930ED00B525EC0B8D
:100BB000D42D8316091583120800ED016D08073C3A
:100BC000031C002E83160911831209110330F7004C
:100BD000F70BE82D0314EC0C0318F02D0911F12D7F
:100BE0000915831609116330F700F70BF52DF82D61
:100BF00009150330F700F70BFB2D8312ED0ADE2DEC
:100C00000800EC016C08073C031C232E8316091115
:100C1000831209110330F700F70B0C2E8316091508
:100C20000D30F700F70B122E0915831209191A2E31
:100C300003101B2E0314ED0CC730F700F70B1E2E0C
:100C4000212EEC0A022E6D08F800080083162008F9
:100C50000319EC2EAC0024080319EC2EAC02031C83
:100C6000362E7F30AC070318EC2E3C2E8130AC02C0
:100C7000031CEC2E0319EC2E2C08F700F801F901E7
:100C8000FA01AB012108AA00AA172208A90023082B
:100C9000A8001930AC002708A80203185F2E013005
:100CA000A90203185F2EAA0203185F2EAB020318D5
:100CB0005F2EAB0AAA0AA90A2708A807912E2608C0
:100CC000A90203187A2E0130AA0203187A2EAB0269
:100CD00003187A2EAB0AAA0A2608A9072708A8072C
:100CE000031C912EA90A031D912EAA0A031D912E01
:100CF000AB0A912E25088038AA020318902E0130E5
:100D0000AB020318902EAB0A25088038AA072608E4
:100D1000A907031C6E2EAA0A031D6E2EAB0A6E2EA7
:100D20007A14AC0B942E9F2E0310A80DA90DAA0DBA
:100D3000AB0D0310FA0DF90DF80DAD0D4B2E2D1C5A
:100D4000A72E0310F80CF90CFA0CAD0CAA2EF70321
:100D50000319EC2EAD1BD32E0310A80DA90DAA0D5F
:100D6000AB0D2708A8020318BF2E0130A9020318F3
:100D7000BF2EAA020318BF2EAB02031CE22E2608C8
:100D8000A9020318CA2E0130AA020318CA2EAB0208
:100D9000031CE22E25088038AA020318D32E013046
:100DA000AB02031CE22EFA0A031DE22EF90A031D10
:100DB000E22EF80A031DE22EF70A0319EC2EF80CB6
:100DC000F90CFA0C2108AC002508AC06AC1FEA2E81
:100DD000F817F02EF813F02EF701F801F901FA01D7
:100DE00083120800831628080319632FB0002C080B
:100DF0000319632FB0070318042F7F30B002031CC0
:100E0000632F0319632F082F8130B0070318632F56
:100E10003008F700F801F901FA012908B400B41705
:100E20002A08B3002B08B2001830B000B101321C00
:100E3000312F2F08FA07031C232FF90A031D232F34
:100E4000F80A0319B1172E08F907031C2A2FF80A0C
:100E50000319B1172D08AA00AA172A08F8070318C2
:100E6000B117B10DF80CF90CFA0CB40CB30CB20CB0
:100E70000310B00B162F0130F7070318632FF81B70
:100E8000482FB40DFA0DF90DF80DF7030319632F70
:100E9000B41F592FFA0A031D592FF90A031D592FA0
:100EA000F80A031D592FF80CF90CFA0CF70A03196C
:100EB000632F2908B1002D08B106B11F612FF81763
:100EC000672FF813672FF701F801F901FA01831270
:100ED000080083164708C9004608CB004508CA0029
:100EE0004808003C0318892F4B08FA004A08840080
:100EF00083137A18831749080002031D842F4A08B8
:100F0000F8004B08F9008C2FCA0A0319CB0AC80352
:100F1000702F0030F800F900831208008316861144
:100F2000831286118316A801A701A6010130A5002E
:100F30000830A90083126220831686118312861559
:100F4000080083168611831286118316A801A70153
:100F5000A601B430A5000830A900831262208316D0
:100F6000A801A701A601A5011030A90083126220E3
:100F70007808FC007708FB0083168611831286151B
:100F80007B08F8007C08F9000800B630F700FA0189
:100F9000F901F8017B087C047D047E04031DD22F37
:100FA000F701DF2F0310F81BDE2FFB0DFC0DFD0DED
:100FB000FE0DFA0DF90DF80DF70BD22FF8130800FE
:1010000004088316A0007108A20003192A2870089A
:10101000AB0083126F088316AA0083126E08831632
:10102000A90083126D088316A800AF01AE0120301D
:10103000AD008230AC008A118312F2268A157A083C
:10104000F0007908EF007808EE007708ED008316CD
:10105000A20B07287008AB0083126F088316AA0042
:1010600083126E088316A90083126D088316A800E8
:101070002808B63CA800FA012908AC00A9170310FB
:10108000A90CAA0CAB0CFA0CF90CF80CF70CA80B79
:101090003F28AC1F5628F709F809F909FA09F70A99
:1010A0000319F80A0319F90A0319FA0A7A08F00071
:1010B00079088312EF007808EE007708ED00F01F42
:1010C00070288316A003A0168312ED09EE09EF091C
:1010D000F009ED0A0319EE0A0319EF0A0319F00AE1
:1010E0003B308316A7009A30A600CA30A500A401A1
:1010F0000A30A20071080319A00A7008AB0083121D
:101100006F088316AA0083126E088316A900831243
:101110006D088316A8002708AF002608AE00250832
:10112000AD002408AC008A11831207258A15000837
:10113000ED00840A0008EE00840A0008EF00840A2B
:101140000008F000FD308407F708031DBE28710A6F
:1011500083162202031DAE288312BE28200803191D
:10116000C1280F3922020319B72803180129A01B2F
:101170000129201BC1282030F92883122030831632
:10118000A005A01ED328A0127108031DA003770894
:10119000A0002D30A8008A118312EC208A15831636
:1011A0002008F700A00171082202031DE528770836
:1011B000A0002E30A8008A118312EC208A15831615
:1011C0002008F7002030A00500303030A01EF9289C
:1011D000A0127108031DA0037708A0002D30A800FD
:1011E0008A118312EC208A1583162008F700A001CB
:1011F0003030F7077708A8008A118312EC208A158F
:1012000083162708AB002608AA002508A900240891
:10121000A800AF01AE01AD010A30AC008A11831203
:1012200007258A157A088316A7007908A60078088A
:10123000A5007708A400A20B7D28831208008A115C
:1012400096208A150730B100AC160230A9002B1485
:10125000AB102B11AB158A11AB228A150A30FB009B
:101260008A11D8208A158A11BE248A153230FB00D3
:101270008A11D8208A158316861183128611831647
:10128000A801A701A6010230A5000830A9008A1113
:10129000831262208A15831686118312861583169F
:1012A00088178312881B4F290130FD008A11D12431
:1012B0008A157A08E6007908E5007808E4007708DE
:1012C000E3000230FD008A11D1248A157A08EA0071
:1012D0007908E9007808E8007708E7000330FD00A6
:1012E0008A11D1248A157A08EE007908ED00780871
:1012F000EC007708EB000430FD008A11D1248A1538
:101300007A08F2007908F1007808F0007708EF0019
:101310001B3003178D0000308F0003100430F300E2
:101320008A11031310218A152D3003178D00003008
:101330008F008A11031354218A151E3003178D0064
:1013400000308F0003100530F3008A1103131021C1
:101350008A154A3084006608F6006508F5006408BE
:10136000F4006308F3008A114B258A152030831698
:10137000A8008A118312EC208A154A3084006A087A
:10138000F6006908F5006808F4006708F3008A11A0
:101390004B258A1520308316A8008A118312EC2071
:1013A0008A154A3084006E08F6006D08F5006C0856
:1013B000F4006B08F3008A114B258A152030831640
:1013C000A8008A118312EC208A154A308400720822
:1013D000F6007108F5007008F4006F08F3008A1138
:1013E0004B258A1520308316A8008A118312EC2021
:1013F0008A15E3018A11C4258A15CC30EC008A11C4
:10140000DD258A154430EC008A11DD258A15E308B4
:10141000031D102A8A1101268A157808E300072A7D
:101420008A11C4258A15CC30EC008A11DD258A1575
:10143000BE30EC008A11DD258A158A1101268A1535
:101440007808E4008A1101268A157808E500650805
:10145000E7006408E6006708ED006608EC008E30DF
:10146000F7006D08F8006C08F900FA01ED1F3D2A3D
:10147000F809F909F90A0319F80AF808031D4A2AB4
:101480007908F800F9010830F702F808031D4A2A24
:10149000F701532A0310F81B512AF90DF80DF70331
:1014A0004A2AED1FF8137708EC007808ED00790858
:1014B000EE007A08EF008316A300831279088316E2
:1014C000A200831278088316A1008312770883167E
:1014D000A000A701A601A5018330A4008A118312F0
:1014E00026268A157A08EB007908EA007808E900D0
:1014F0007708E8006808F7006908F8006A08F9004A
:101500006B08FA007708E3007808E4007908E50042
:101510007A08E600E8010408E7006810831B6814F5
:1015200083106608EC006508EB006408EA006308B5
:10153000E9003330F0009330EF000830EE008730E0
:10154000ED0080308318EE068316A201A3018312FA
:101550006A088316A10083126E088316A1068312FF
:1015600069080319B72B8316A000F70083126D08D2
:101570000319C42B8316A0020319512B031C032B40
:1015800083126E088316A600A61783126F088316AF
:10159000A5007008A400A3010310A60CA50CA40CC0
:1015A000A30CA00BCB2AA11FD82A2214DD2B2210BA
:1015B000201022166C3084008313F22B2212A11B00
:1015C000EB2A201CF62AA60CA50CA40CA30CF70AE7
:1015D0000319D82BF62AA61BF92A0310A30DA40D74
:1015E000A50DA60DF7030319D82BEB2A2217772B8D
:1015F000221383126A088316A100A11F012BA617CC
:10160000D12BA613D12B83126D088316A000F700EF
:10161000831269088316A00283126A088316A60043
:10162000A61783126B088316A50083126C08831615
:10163000A400A3010310A60CA50CA40CA30CA00BE2
:10164000192BA11F262BA214DD2BA2102010A216ED
:10165000703084008313F22BA212A11B392B201CA3
:10166000442BA60CA50CA40CA30CF70A0319D82B29
:10167000442BA61B472B0310A30DA40DA50DA60DEF
:10168000F7030319D82B392BA217772BA213831238
:101690006E088316A100A11F4F2BA617D12BA613EE
:1016A000D12B83126E088316A600A61783126F082B
:1016B0008316A5007008A400A11F622BA613221593
:1016C000DD2B2211A30120106C3084008313F22B38
:1016D000A11B8D2B83126A088316A100201C772B77
:1016E000A60CA50CA40CA30CF70A0319D82BA31F56
:1016F000882BA40A031D882BA50A031D882BA60A84
:10170000031D882BA60CA50CA40CF70A0319D82BD3
:10171000221BF82AA21B462BB02B8030A606A61F40
:10172000972BDD2B83126E088316A100A62B831244
:101730006A088316A100A608031DA62BA508031D91
:10174000A62BA408031DA62BF701D12BA61BB02B9B
:101750000310A30DA40DA50DA60DF70BA62BD82BDA
:10176000A11FB42BA617D12BA613D12B83126D0862
:10177000F7006E088316A60083126F088316A50073
:101780007008A400D12B83126908F7006A08831639
:10179000A60083126B088316A50083126C088316BB
:1017A000A4002608F8002508F9002408FA00102CE7
:1017B000F701F801F901FA01102CA301A409A50908
:1017C000A609A309A30A031DEB2BA40A031DEB2BF7
:1017D000A50A0319A60A2218D72AA218252B22190E
:1017E000612B922B0008A407031CFC2BA50A031DE8
:1017F000FC2BA60A0319201484030008A507031C68
:10180000042CA60A0319201484030008801F803AC0
:10181000A60703182014221ADE2AA21A2C2B682BE2
:101820008312670884008313681883177708E3001E
:101830007808E4007908E5007A08E6008930840039
:101840007A08F0007908EF007808EE007708ED00DC
:101850000230F100002020308316A8008A11831284
:10186000EC208A150D308316A8008A118312EC2013
:101870008A150A308316A8008A118312EC208A1573
:101880008A110A16A12EEF01EE0130308316A00056
:101890003130A1003230A2003330A3003430A40034
:1018A0003530A5003630A6003730A7003830A80004
:1018B0003930A9006130AA006230AB006330AC005F
:1018C0006430AD006530AE006630AF006730B00008
:1018D0006830B1006930B2006A30B3006B30B400D8
:1018E0006C30B5006D30B6006E30B7006F30B800A8
:1018F0007030B9007130BA007330BB007430BC0076
:101900007530BD007630BE007730BF007830C00043
:101910007930C1007A30C200C30183126408E90043
:101920006308E8006908FA006808840083137A18DD
:1019300083170008203C031DA12CE80A0319E90ABB
:10194000922C6908FA0068088400831369188317C9
:1019500000082D3C0319B72C6908FA0068088400B8
:1019600083136918831700082B3C031DC32C6908D7
:10197000FA006808E80A0319E90A840083137A1850
:1019800083170008C42C2B30F000E71BD02C670B0A
:10199000CA2CD02CE71BD22C6708243C0318D22C6D
:1019A000322E682DE70803192D2D6708103C031D02
:1019B000FC2C6908FA006808840083137A188317DE
:1019C0000008303C031DFC2C0130680784008313A1
:1019D000691883170008783C0319F82C0130680750
:1019E00084008313691883170008583C031DFC2CDE
:1019F0000230E8070318E90A6708083C031D0F2DA9
:101A00006908FA006808840083137A1883170008AD
:101A1000303C031D0F2D0130E8070318E90A670861
:101A2000023C031D2C2D6908FA006808840083130A
:101A30007A1883170008303C031D2C2D01306807ED
:101A400084008313691883170008623C031D2C2D42
:101A50000230E8070318E90A682D6908FA006808E7
:101A6000840083137A1883170008303C03193B2D38
:101A70000A30E700682D0130680784008313691875
:101A800083170008783C03194F2D01306807840044
:101A90008313691883170008583C031D562D103016
:101AA000E7000230E8070318E90A682D01306807EB
:101AB00084008313691883170008623C031D662D98
:101AC0000230E700E8070318E90A682D0830E7004C
:101AD0006908EB006808EA006908FA0068088400F1
:101AE00083137A1883170008303C031D7B2DE80A06
:101AF0000319E90A6C2D6908FA0068088400831349
:101B0000691883170008F100403C03188E2D7108F6
:101B10005A3C031C8E2D710820388F2D7108F1005E
:101B20008316C601A030C5007108C700831267087C
:101B30008316C8008A11831269278A157908ED0077
:101B40007808EC00EC08031DA82DED0803192A2ED7
:101B5000FA016708F700F71BFA03F1007A08F200B0
:101B60006F088316C70083126E088316C6007208BA
:101B7000C9007108C800470849068039CB00C71F53
:101B8000C62DC609C709C60A0319C70AC91FCD2D24
:101B9000C809C909C80A0319C90A1030CA00F701DF
:101BA000FA01C70CC60C031CDB2D4808F707031805
:101BB000FA0A4908FA07FA0CF70CF90CF80CCA0BE8
:101BC000D12DCB1FE82DF809F909F80A0319F90AF4
:101BD0007908F2007808F100A03083126C02F70057
:101BE0006D08FA000030031C0130FA027708710713
:101BF000EE007208EF007A0803187A0FEF07E80A80
:101C00000319E90A6908FA0068088400831369184F
:101C100083170008F100403C0318152E71085A3C48
:101C2000031C152E71082038162E7108F10083163A
:101C3000C601A030C5007108C7008312670883166B
:101C4000C8008A11831269278A157908ED0078087F
:101C5000EC00A22D68086A02031D452E69086B027C
:101C6000031D452E650866040319412E650884008E
:101C7000831366188317840A64088000840363084A
:101C800080000030F800F900612E70082D3C031D23
:101C90004E2EEE09EF09EE0A0319EF0A65086604F5
:101CA00003195D2E65088400831366188317840A60
:101CB000690880008403680880006E08F8006F08D7
:101CC000F90008008A1196208A153230FB008A112B
:101CD000D8208A152B170130AE00AF010730B100B4
:101CE000AC160230A9000130A6006308013A0319BE
:101CF000802E033A0319832E013A0319862E892E6A
:101D00000230B0008A2E0330B0008A2E0430B000BA
:101D10008A2E082FB501B401B301B201BA01B9018D
:101D2000B801B701BE01BD01BC01BB018A11AB22E4
:101D30008A150A30FB008A11D8208A158A11BE2420
:101D40008A153230FB008A11D8208A158A118E2715
:101D50008A15831688178312881FA92E3730031718
:101D60008D0000308F0003100430F3008A1103133C
:101D700010218A153D3003178D0000308F008A1125
:101D8000031354218A153A3003178D0000308F0059
:101D900003100430F3008A11031310218A15013057
:101DA000E40064086302031CFA2E6408E5000A16C6
:101DB0008A1100280A128A157708E5007808E600DB
:101DC0007908E7007A08E80020308316A8008A1115
:101DD0008312EC208A15893084006808F0006708B7
:101DE000EF006608EE006508ED000630F100002007
:101DF000E40AD12E0D308316A8008A118312EC203C
:101E00008A150A308316A8008A118312EC208A15DD
:061E10008A110A16D92E0A
:102000006508013A03190B28033A03190E28013A0F
:102010000319112814280230AD0014280330AD0034
:1020200014280430AD0014280A1248220A1632304F
:10203000FB000A12D8200A160A12A1270A167908EC
:10204000FA0078080739EE00EF016E08FD000A1269
:10205000D1240A167A08E9007908E8007808E70030
:102060007708E6002908FC3E03181F2A043E2A2AA6
:102070006908FE006808FD006708FC006608FB00B0
:102080000A12C5270A167A088316A3007908A20047
:102090007808A1007708A000A701A601A5018F304C
:1020A000A4000A12831226260A167708EE00780882
:1020B000EF007908F0007A08F1008316AB00700891
:1020C000AA0083126F088316A90083126E08831674
:1020D000A800AF012430AE007430AD009230AC00E7
:1020E0000A128312F2260A167708EE007808EF002B
:1020F0007908F0007A08F1008316A3007008A200A6
:1021000083126F088316A10083126E088316A00045
:10211000A7011B30A6003730A5009530A4000A1295
:10212000831226260A167A08ED007908EC00780852
:10213000EB007708EA001F2A6908FE006808FD0026
:102140006708FC006608FB000A12C5270A167A0811
:102150008316A3007908A2007808A1007708A000E0
:10216000A701A601A5018F30A4000A12831226261A
:102170000A167708EE007808EF007908F0007A0870
:10218000F1008316AB007008AA0083126F08831653
:10219000A90083126E088316A800AF012430AE0098
:1021A0007430AD009230AC000A128312F2260A1687
:1021B0007708EE007808EF007908F0007A08F1005F
:1021C0008316A3007008A20083126F088316A10073
:1021D00083126E088316A000A7011B30A6003730BB
:1021E000A5009530A4000A12831226260A16770845
:1021F000EE007808EF007908F0007A08F100831605
:10220000AB007008AA0083126F088316A90083121E
:102210006E088316A800AF01AE01AD018030AC009E
:102220000A128312F2260A167A08ED007908EC00E9
:102230007808EB007708EA001F2A6908FE006808A2
:10224000FD006708FC006608FB000A12C5270A1695
:102250007A088316A3007908A2007808A1007708FD
:10226000A000A701A601A5018F30A4000A128312C5
:1022700026260A167708EE007808EF007908F000A5
:102280007A08F1008316AB007008AA0083126F0869
:102290008316A90083126E088316A800AF012430AC
:1022A000AE007430AD009230AC000A128312F226F8
:1022B0000A167708EE007808EF007908F0007A082F
:1022C000F1008316A3007008A20083126F08831622
:1022D000A10083126E088316A000A7011B30A60080
:1022E0003730A5009530A4000A12831226260A165C
:1022F0007708EE007808EF007908F0007A08F1001E
:102300008316AB007008AA0083126F088316A90019
:1023100083126E088316A800AF01AE01AD018130B3
:10232000AC000A128312F2260A167A08ED00790828
:10233000EC007808EB007708EA001F2A6908FE0025
:102340006808FD006708FC006608FB000A12C52744
:102350000A167A088316A3007908A2007808A1005B
:102360007708A000A701A601A5018F30A4000A12DA
:10237000831226260A167708EE007808EF007908FF
:10238000F0007A08F1008316AB007008AA008312EF
:102390006F088316A90083126E088316A800AF0188
:1023A0002430AE007430AD009230AC000A128312BB
:1023B000F2260A167708EE007808EF007908F00098
:1023C0007A08F1008316A3007008A20083126F0838
:1023D0008316A10083126E088316A000A7011B308C
:1023E000A6003730A5009530A4000A1283122626D5
:1023F0000A167708EE007808EF007908F0007A08EE
:10240000F1008316AB007008AA0083126F088316D0
:10241000A90083126E088316A800AF01AE01AD01BA
:102420008230AC000A128312F2260A167A08ED00F6
:102430007908EC007808EB007708EA001F2A6A08A0
:10244000F7006B08F8006C08F9006D08FA008A15AF
:102450000A12DA2E0A108A140A11820738289C28D8
:102460001D299E290A30FB000A12D8200A166A0884
:10247000FB3E03185F2A053E6F2CAE015F2A690BF5
:10248000442A0130AE00462A0930AE005F2A690BAB
:102490004C2A0230AE004E2A0A30AE005F2A690B89
:1024A000542A0330AE00562A0B30AE005F2A690B67
:1024B0005C2A0430AE005E2A0C30AE005F2A6C0845
:1024C000FB3E0318872A053E782CAD01872A6B0B4B
:1024D0006C2A0130AD006E2A0930AD00872A6B0BE3
:1024E000742A0230AD00762A0A30AD00872A6B0BC1
:1024F0007C2A0330AD007E2A0B30AD00872A6B0B9F
:10250000842A0430AD00862A0C30AD00872A0A12D6
:1025100048220A163230FB000A12D8200A160A1284
:10252000A1270A167908FA0078080739FB00FC0190
:102530007B08FD000A12D1240A167A08F0007908F7
:10254000EF007808EE007708ED002908FC3E03183C
:10255000662C043E812C7008FE006F08FD006E089A
:10256000FC006D08FB000A12C5270A167A088316BC
:10257000A3007908A2007808A1007708A000A701AD
:10258000A601A5018F30A4000A12831226260A167E
:102590007708FB007808FC007908FD007A08FE0047
:1025A0008316AB007D08AA007C08A9007B08A80060
:1025B000AF012430AE007430AD009230AC000A128E
:1025C0008312F2260A167708FB007808FC007908C7
:1025D000FD007A08FE008316A3007D08A2007C0897
:1025E000A1007B08A000A7011B30A6003730A50082
:1025F0009530A4000A12831226260A167A08F400DF
:102600007908F3007808F2007708F100662C70086A
:10261000FE006F08FD006E08FC006D08FB000A124A
:10262000C5270A167A088316A3007908A20078083D
:10263000A1007708A000A701A601A5018F30A40082
:102640000A12831226260A167708FB007808FC0077
:102650007908FD007A08FE008316AB007D08AA0009
:102660007C08A9007B08A800AF012430AE007430BC
:10267000AD009230AC000A128312F2260A167708D7
:10268000FB007808FC007908FD007A08FE0083163C
:10269000A3007D08A2007C08A1007B08A000A70180
:1026A0001B30A6003730A5009530A4000A12831213
:1026B00026260A167708FB007808FC007908FD003A
:1026C0007A08FE008316AB007D08AA007C08A900EA
:1026D0007B08A800AF01AE01AD018030AC000A124A
:1026E0008312F2260A167A08F4007908F3007808B3
:1026F000F2007708F100662C7008FE006F08FD00FC
:102700006E08FC006D08FB000A12C5270A167A083D
:102710008316A3007908A2007808A1007708A0001A
:10272000A701A601A5018F30A4000A128312262654
:102730000A167708FB007808FC007908FD007A0883
:10274000FE008316AB007D08AA007C08A9007B0868
:10275000A800AF012430AE007430AD009230AC0060
:102760000A128312F2260A167708FB007808FC008A
:102770007908FD007A08FE008316A3007D08A200F8
:102780007C08A1007B08A000A7011B30A600373001
:10279000A5009530A4000A12831226260A1677088F
:1027A000FB007808FC007908FD007A08FE0083161B
:1027B000AB007D08AA007C08A9007B08A800AF0137
:1027C000AE01AD018130AC000A128312F2260A1666
:1027D0007A08F4007908F3007808F2007708F1002D
:1027E000662C7008FE006F08FD006E08FC006D0886
:1027F000FB000A12C5270A167A088316A300790877
:10280000A2007808A1007708A000A701A601A501F1
:102810008F30A4000A12831226260A167708FB00BE
:102820007808FC007908FD007A08FE008316AB00EA
:102830007D08AA007C08A9007B08A800AF0124300D
:10284000AE007430AD009230AC000A128312F22652
:102850000A167708FB007808FC007908FD007A0862
:10286000FE008316A3007D08A2007C08A1007B085F
:10287000A000A7011B30A6003730A5009530A400AA
:102880000A12831226260A167708FB007808FC0035
:102890007908FD007A08FE008316AB007D08AA00C7
:1028A0007C08A9007B08A800AF01AE01AD01823011
:1028B000AC000A128312F2260A167A08F40079088C
:1028C000F3007808F2007708F100662C7108F70031
:1028D0007208F8007308F9007408FA0008000A107A
:1028E0008A100A1582073D2A3F2A472A4F2A572A6B
:1028F0000A108A100A158207652A672A6F2A772A22
:102900007F2A0A108A100A158207AB2A072B7C2B14
:10291000F12B0A1296200A163230FB000A12D82038
:102920000A160730B100AC16A9010130A6002B161B
:10293000AB12AC152C162B130530AE00AD00B50153
:10294000B401B301B201BA01B901B801B701BE01C6
:10295000BD01BC01BB0164080319BB2C013A03197A
:10296000BD2C033A0319C02C013A0319C32C073AB2
:102970000319C62CC92CAF01CA2C0130AF00CA2CD8
:102980000230AF00CA2C0330AF00CA2C0430AF00B5
:10299000CA2C7C2D63080319DA2C013A0319DC2CAC
:1029A000033A0319DF2C013A0319E22C073A031901
:1029B000E52CE82CB001E92C0130B000E92C023004
:1029C000B000E92C0330B000E92C0430B000E92C51
:1029D0007C2D0A12AB220A163230FB000A12D820D4
:1029E0000A160A12BE240A160A128E270A16643024
:1029F000FB000A12D8200A16831688178312881F34
:102A0000FC2C0A30FB000A12D8200A162F300317BC
:102A10008D0000308F0003100430F3000A120313FE
:102A200010210A16353003178D0000308F000A126E
:102A3000031354210A16323003178D0000308F0023
:102A400003100430F3000A12031310210A16013098
:102A5000E900EA00EB00EC0132227708E500780893
:102A6000E6007908E7007A08E8000230E900013062
:102A7000EA000230EB00EC0132227708E900780826
:102A8000EA007908EB007A08EC00893084006808D5
:102A9000F0006708EF006608EE006508ED000630FC
:102AA000F1000A128A1500200A168A1120308316B6
:102AB000A8000A128312EC200A16893084006C08E0
:102AC000F0006B08EF006A08EE006908ED000630C0
:102AD000F1000A128A1500200A168A110D30831699
:102AE000A8000A128312EC200A160A308316A800E6
:102AF0000A128312EC200A168A110A16232F840167
:102B000083131F308305831686138312861783165B
:102B100086140610061183120611A6010130A700C3
:102B2000A801A901AA002B14AB102B11AB152B1671
:102B3000AB122B17AB132C10AC100530AD00AE0050
:102B40002C11AF01B0010130B100AC112C12B50154
:102B5000B401B301B201AC120330B600BA01B9013D
:102B6000B801B701BE01BD01BC01BB01BF012C13FF
:102B7000AC17C001C201C101831603170908C0398F
:102B8000890003131F129F1200300317880083125D
:102B90008701880189010313A001A101FF30C3004F
:102BA000831603170908C039890003131F129F12E7
:102BB000003003178800831203131F139F1383161B
:102BC0009F1383121F149412C312430883168700A5
:102BD000831243164308831687008312C3114308E8
:102BE000831687000130831294000030831694000E
:102BF0000108C73908388100831290010030F800BD
:102C00009200003083169200831243154308831606
:102C100087008312970183169B019C0101309D0060
:102C2000831203178701880189010A120313962072
:102C30000A163230FB000A12D8200A163F3003175A
:102C40008D0000308F0003100930F3000A120313C7
:102C500010210A16593003178D0000308F000A1218
:102C6000031354210A16443003178D0000308F00DF
:102C700003142730F3000A12031310210A165B30E5
:102C800003178D0000308F0003100430F3000A1288
:102C9000031310210A16603003178D0000308F00D7
:102CA0000A12031354210A162D308316A8000A12A3
:102CB0008312EC200A163E308316A8000A128312F3
:102CC000EC200A16E4014430E3001430E5000A1257
:102CD00092290A164430840083130A12DF290A1647
:102CE0000D308316A8000A128312EC200A160A304F
:102CF0008316A8000A128312EC200A16E301E401ED
:102D00005830840083136308840764080A1204207F
:102D10000A16800000380319902EE40AE30A802E78
:102D2000E4014430E300E6015830E5000230E700FA
:102D30000A12F9210A16F808031DA32E0A128A1591
:102D40001F290A168A11E301E40158308400831315
:102D50006308840764080A120B200A1680000038F2
:102D60000319B52EE40AE30AA52EE4014430E3007A
:102D7000E6015830E5000330E7000A12F9210A168F
:102D8000F808031DDB2EE4014730E300E6015D3067
:102D9000E5000A30E7000A128A1543240A168A1150
:102DA0007908E0007808DF005F08E3000A128A155E
:102DB000622E0A168A11E301E4015830840083135D
:102DC0006308840764080A1213200A16800000387A
:102DD0000319ED2EE40AE30ADD2EE4014430E3009A
:102DE000E6015830E5000330E7000A12F9210A161F
:102DF000F808031D232FE4014730E300E6015D30AE
:102E0000E5000A30E7000A128A1543240A168A11DF
:102E10007908E0007808DF005E08E4005D08E30060
:102E2000E6015D30E5000A30E7000A128A15432406
:102E30000A168A117908E2007808E1005F08E300C9
:0A2E40006108E400892C3F2E6300B6
:04400E00F22CFF3F52
:00000001FF
;PIC16F887
;CRC=BC8F  CREATED="12-9-11 10:45"
