:0600000002030F020403DD
:03000B0002040BE1
:03001300020413D1
:03001B0002041BC1
:03002300020423B1
:03002B0002042BA1
:0300330002043391
:03003B0002043B81
:0300430002044371
:03004B0002044B61
:0300530002045351
:03005B0002045B41
:0300630002046331
:03006B0002046B21
:0300730002047311
:03007B0002047B01
:03008300020483F1
:03008B0002048BE1
:03009300020493D1
:03009B0002049BC1
:0300A3000204A3B1
:0300AB000204ABA1
:0300B3000204B391
:08030F0075814D1200BB80FE58
:13031700AF8210990280FB8F992210980280FB859982224B
:20F8000090F7FEE493FFBF3D0B90F7FFE493FFBFC20280047F0080027F018F8222AF837489
:20F82000FC2F500574082F5004758200227582012275B7A575B7F1227E007FF4C007C00688
:20F8400012F831D006D007758F038E828F8374FFF0758F00EF24FCFFC3940450DF2212F86C
:20F8600031758F0790000074FFF0758F0022AE82AF83C007C00612F81DE582D006D00760A9
:1FF8800018C007C00612F831D006D007758F018E828F83E508F0758F0022E493F58222A2
:02FBFE0043FEC4
:2000BB001202A8E5EFF54930E10375490212F800E58224FFE433F54BD282754A007FFF20E7
:2000DB008202054AEF14FEFF70F5D294E54920E617E54B60137438254A400D90FBFEE49311
:2000FB00F5C475C30212040012010880FBD294120321AF82C294BF21028017BF2202801235
:20011B00BF2302800DBF26028008BF29028003BF310FC007120321AE82D007BE2002800113
:20013B0022BF2100500122EF24CE500122EF24DFFF240A83F582EF241583F583E473987B35
:20015B008E9ABDE7FE5E949B9B9B9B9B9B95980201010101010102010202020202020202DE
:20017B0075824F12031790FBFEE493F58212031702029C12F83802029C12F85E02029C12B3
:20019B000321AF828F4C754D00120321AF828F06E4424CEE424D120321AF82BF200302021A
:2001BB009C22120321AF82C007120321AE82D007BE2002800122854C82854D83054CE4B5E6
:2001DB004C02054D8F0812F86E02029C854C82854D83054CE4B54C02054D12F89A120317B3
:2001FB0002029C120321E582FF24BF5001227E00C3EE9F5019EE2409F9C007C006C00112A7
:20021B000321E582D001D006D007F70E80E2C007120321AE82D007BE20667E00C3EE9F50ED
:20023B005C854C82854D83054CE4B54C02054DEE2409F98708C007C00612F86ED006D007C0
:20025B000E80D9120321AF82C007120321AE82D007BE202C7E00C3EE9F5022854C82854D42
:20027B0083054CE4B54C02054DC007C00612F89A120317D006D0070E80DC43EF1002029C00
:20029B002275821212031775821002031775A700C2AF53D9BF75B64075B28F75A900758914
:2002BB0020758E08758D9675884075981275FF807E5E7F01EE24FFFCEF34FFFD8C068D0762
:2002DB00EC4D70F075EF0675A41075A70F75A41075A70075E10143D40E43D53043A48043F9
:1402FB00A53D75A70F43A50D75A70075E401C28875E3402273
:00000001FF

