:1000000001308A00E52900000A108A100A118207CF
:1000100028340C3401340634A8312910CB306B3627
:10002000E9352019B0183300F73B77176D36613189
:10003000AE317A00CC214410F432733A00012730FB
:10004000840083130008031932280230F800F701F6
:10005000F70B2828F80B27289730F700F70B2E28E6
:10006000800B252808002E18372808123828081673
:10007000831608128312AE183F288812402888166B
:100080008316881283122E19472808134828081748
:10009000831608138312AE194F2888135028881727
:1000A0008316881300008312091483160910582838
:1000B0005928831209108316091083120800AF0112
:1000C0008316081600308312081A0130AF04831615
:1000D000881600308312881A0130F7000310F70DDC
:1000E0007708AF048316081700308312081B01300D
:1000F000F700F70DF70DFC30F7057708AF0483160E
:10010000881700308312881B0130F700F70DF70DB8
:10011000F70DF830F7057708AF042F08F80008004E
:10012000831609108910091183128910831689100A
:1001300008168816081788178312091583160911DF
:1001400000008312091483160910000083125F2037
:100150007808AE00091083160910000083120914F4
:1001600083160910B32883125F207808AD000910A8
:1001700083160910081288120813881383122E0E92
:10018000F700F030F70577082D04F8007808AD0087
:10019000AD1FCC2883169828AB08031DD1288910E1
:1001A000D22889148316891000008312091183163E
:1001B00009110000831209108316091083122C0EF6
:1001C000AD000F30AD052D08AE0033202C080F39DF
:1001D000AD00AE0033200800831608128812081301
:1001E0008813091089100911831289108316891048
:1001F000831209118316091183120910831609103D
:100200000F308312A7001F200130A3002308033CF6
:10021000031C12290330AE0033200530A7001F2035
:10022000A30A06290230AE003320A3012308033CB1
:10023000031C232923080420A400AB012408AC00DC
:100240009020A30A16290800280B27292A294030C4
:10025000A9002B29A90101302702A9072908803804
:10026000AA00AB012A08AC00902008002608073A33
:10027000031944290B3A03194929063A031951294C
:10028000023A031957295C290130A700A80024214C
:100290006229AB010130AC0090200230A7001F2082
:1002A00062290130A7000230A80024216229AB0195
:1002B0001030AC00902062290130AB002608AC0061
:1002C000902062290800831603178C170C14000075
:1002D000000083120C087F390319A7290313A30018
:1002E00003170D080313A40003170F080313A50039
:1002F0002308A6003621240803178D0003132508C0
:1003000003178F0083168C170C1400000000831253
:100310000C0D0E0D7F390319A7290313A300031732
:100320000D080313A40003170F080313A5002308E7
:10033000A6003621240803178D0003132508031790
:100340008F008D0A03198F0A031363290317031300
:100350000800A41BBB290F30F700230EF7050A3055
:1003600077020318B6293030F707B8292408F707B1
:100370007708A60036210F30A3050A3023020318A0
:10038000C3293030C529A4132408A3072308A600D5
:1003900036218A110A128D2AA301A3012308633C86
:1003A000031CE22983168612831286120130A700ED
:1003B0001F2083168612831286160130A7001F2085
:1003C000A30ACE298A110A12942A840183131F30AA
:1003D0008305713083168F000F08031787110C30C7
:1003E00003139900A230980090308312980083166E
:1003F00003170908C039890003131F129F12003028
:10040000031788008312870188018901FF300313D5
:10041000A000A201A101831603170908C0398900B1
:1004200003131F129F120030031788008312031357
:100430001F139F1383169F1783121F149412A01269
:100440002008831687008312201620088316870051
:100450008312A011200883168700013083129400B4
:100460000030831694000108C739083881008312D0
:1004700090010030F8009200003083169200831241
:1004800020152008831687008312970183169B018D
:100490009C0101309D0083120317870188018901A7
:1004A0007130831603138F000F088312EC200C3079
:1004B00003178D0000308F00031363210330A70062
:1004C0000230A8002421143003178D0000308F0063
:1004D000031363210830A300FA30A7001F20A30BE9
:1004E0006C2AEC200130A700A80024211A30031741
:1004F0008D0000308F00031363210130A70002300C
:10050000A80024212108A60036212030A60036218B
:100510002108A3005730A400A9292030A6003621C5
:10052000A10A0319A20ACC290230A300FA30A700BD
:0A0530001F20A30B962A722A630015
:04400E00F52CFF3F4F
:00000001FF
;PIC16F887
;CRC=C148  CREATED="27-4-14 20:11"
