:1000000014C026C025C024C023C022C021C020C0E7
:100010001FC01EC01DC01CC01BC01AC019C018C004
:1000200017C016C015C0280C010611241FBECFE54D
:10003000D4E0DEBFCDBF10E0A0E6B0E0E2E3F2E046
:1000400002C005900D92AA36B107D9F7BAD0EFC019
:10005000D7CFA39ABC9ABD9ABB9AB99ABA9A089577
:10006000AB98C498C598C39880FDAB9A81FDC49A9B
:1000700082FDC59A83FDC39AC19A81E08A95F1F702
:10008000C19808951F93182F82958F70E9DF812FF3
:10009000E7DF8DE08A95F1F71F910895C29AF2DFAC
:1000A0000895FCDF0895C298EDDFC29A08950F937A
:1000B0001F93CF93DF93CDDF88E893E10197F1F7AA
:1000C000C198C29804EF11E0C8010197F1F783E0ED
:1000D000C7DFC8010197F1F783E0C2DFC8010197CC
:1000E000F1F783E0BDDF1DE0812F8A95F1F782E013
:1000F000B7DF1A95F1F706E210E0C4EFD1E0F8019E
:100100008491D1DFCE010197F1F70F5F1F4FF0E02F
:1001100009321F07A1F7DF91CF911F910F91089529
:1001200081E0C1DF84EF91E00197F1F708958150FC
:10013000623009F4805C8068B6DF0895EF92FF9228
:100140001F93CF93DF937C01C0E0D0E0F701EC0F69
:10015000FD1F80818A3061F08B3028F4882349F1BB
:10016000873011F50BC08C3061F08D30E9F402C09E
:1001700081E005C081E061E0DADF17C086E062E07F
:10018000FBCF81E061E0D3DF10E080E287DF1F5F1B
:100190001830D9F781E062E0CADF10E080E27EDF4C
:1001A0001F5F1830D9F7E6CF79DF2196C431D1052A
:1001B00069F6F7011082DF91CF911F91FF90EF90C8
:1001C00008950F931F93DF93CF93CDB7DEB7639757
:1001D0000FB6F894DEBF0FBECDBF69DF8E010F5F93
:1001E0001F4FC80160E670E01BD080E060E09FDF39
:1001F000C801A4DF80E062E09ADFC8019FDF8AEFD8
:1002000090E00197F1F780E090E063960FB6F894E4
:10021000DEBF0FBECDBFCF91DF911F910F9108952B
:10022000FB01DC0101900D920020E1F70895F894A4
:02023000FFCFFE
:0A0232004C4344206A65204F4B0046
:00000001FF
