:1000000001308A00552900006334793161004919B3
:100010004324552120100D050001A831A926CC202C
:1000200042103218B1192025C121C82720100D0512
:100030000000A0132008831687008312871308305E
:10004000F80022280000F8173328F813A50C03182D
:100050008717031C8713781733287813F80B262883
:100060003128000087173F308400840B35280000BA
:10007000F81B2528781B2D280800831603178C17DA
:100080000C140000000083120C087F39031981282A
:100090000313A20003170D080313A30003170F088F
:1000A0000313A4002208A5001920230803178D00BC
:1000B0000313240803178F0083168C170C140000F9
:1000C000000083120C0D0E0D7F39031981280313D4
:1000D000A20003170D080313A30003170F0803134F
:1000E000A4002208A5001920230803178D0003137C
:1000F000240803178F008D0A03198F0A03133D2864
:100100000317031308000830F80000008711A0113E
:1001100020088316870000008312A20D0712031C1B
:10012000972820162008831687009B288312201208
:1001300020088316870000008312A015200883166C
:1001400087008312871DA228F80B852800008711DD
:10015000A0112008831687000000831220162008B3
:1001600083168700000000008312A0152008831664
:1001700087008312871DBA28F8010000071A781437
:100180008711A011200883168700831207122012FE
:10019000200883168700831208002108013A0319FA
:1001A000E728033A0319EA28013A0319ED28073A28
:1001B0000319F028013A0319F328033A0319F62822
:1001C000013A0319F9280F3A0319FC28FF280130D6
:1001D000A10007290230A10007290430A100072946
:1001E0000830A10007291030A10007292030A10004
:1001F00007294030A10007298030A10007290430D9
:1002000003178D0000308F0003133D2007292016AF
:1002100020088316870000008312A015200883168B
:10022000870000008312071220122008831687001F
:10023000000083128711A011200883168700E03088
:100240008312A20083202108A2008320201220080C
:100250008316870000008312A015200883168700EC
:100260008312871D3129000035290000201620083F
:1002700083168700000083128A110A12CB292230CC
:10028000840083130008031952290230F800F70193
:10029000F70B4829F80B47299730F700F70B4E2941
:1002A000800B45298A110A12D029840183131F303B
:1002B0008305713083168F000F088312A013200866
:1002C0008316870083128717831603170908C0391E
:1002D000890003131F129F12003003178800831236
:1002E000870188018901FF300313A00083160317DB
:1002F0000908C039890003131F129F120030031729
:100300008800831203131F139F1383169F138312F6
:100310001F149412A012200883168700831220163F
:100320002008831687008312A011200883168700F7
:100330000130831294000030831694000108C739FD
:1003400008388100831290010030F80092000030DC
:1003500083169200831220152008831687008312CB
:10036000970183169B019C0101309D0083120317A6
:1003700087018801890107308D0000308F00031349
:100380003D200D3003178D0000308F0003133D20FA
:100390000330A100CD280430A100FA30A2003F298B
:0803A000A10BCD29C82963005F
:04400E00F52CFF3F4F
:00000001FF
;PIC16F887
;CRC=E7EB  CREATED="14-V-13 19:16"
