:1000000012C02AC029C028C027C026C04FC024C0A3
:1000100023C022C021C020C01FC01EC01DC01CC0E4
:100020001BC01AC019C011241FBECFEDCDBF10E0F8
:10003000A0E6B0E0E8E3F2E002C005900D92A03641
:10004000B107D9F710E0A0E6B0E001C01D92A637D5
:10005000B107E1F77AD0EFC0D3CFAC01892B59F0CB
:1000600020E030E08AEF90E00197F1F72F5F3F4FFB
:1000700024173507B9F708958B9AD1988C9A8A98E6
:100080008D9AB89A0895959A939A949880B389B363
:10009000089582E08BB98CE089B988E88AB908951F
:1000A00085E083BF89B7826089BF08951F920F9250
:1000B0000FB60F9211248F9380916000882339F03E
:1000C00080916000815080936000C09A01C0C09808
:1000D0008F910F900FBE0F901F9018955D9BFECFD4
:1000E0008CB908959498959840E020E030E09923E9
:1000F00014F4939A01C09398949A220F331FC999CC
:10010000216094984F5F403119F0880F991FEFCF0D
:100110009498959AC90108958299FECF90E08050F5
:100120009844E0DF08958299FECF9498959893982B
:1001300020E080E0880FC9998160949A94982F5F9D
:100140002831C1F7959A90E008958F929F92AF92CF
:10015000BF92CF92DF92EF92FF920F931F93CF93B4
:10016000DF938ADF96DF8FDF9BDF789484E690E071
:1001700074DFC0988BE790E9B5DF80E496EAB2DFE0
:1001800083E298ECAFDF8CEA94ECACDF8BE696EC84
:10019000A9DF80E090ECA6DF81E890ECA3DF80E0AF
:1001A0009EECA0DF10E081E08093600084EF91E09E
:1001B00054DF1F5F1330B9F784EF91E04EDF8CE01E
:1001C0008DDF0F2EF1E6AF2EF0E0BF2EF02D4501B2
:1001D0000F2EF4E1CF2EDD24F02DCA0CDB1CF89499
:1001E0008BE89EEC7FDF7501E40100E09CDFC09AA4
:1001F0008993080FCC15DD05C9F795DF182F93DF1C
:1002000080E09EEC6FDFC098011741F4F701819107
:100210007F0164DFCE15DF0511F3F8CF8CE05EDFE0
:1002200085E65CDF82E75ADF82E758DF8FE656DF3C
:0802300082E754DFD4CFFFCFB9
:00000001FF
