:1000000002308A003C2A0000CD306737653AEF366F
:10001000653A721D20100D050000A831A936EC309C
:100020006217633DA035E135EC346B103218B1191D
:100030003A10A0060A005816A02C2C105A100D05D4
:100040000001831603178C170C14000000008312A4
:100050000C087F39031967280313A70003170D083D
:100060000313A80003170F080313A90027080C1E89
:1000700037289900280803178D0003132908031750
:100080008F0083168C170C140000000083120C0DD7
:100090000E0D7F39031967280313A70003170D08F6
:1000A0000313A80003170F080313A90027080C1E49
:1000B00057289900280803178D00031329080317F0
:1000C0008F008D0A03198F0A0313212803170313C6
:1000D00008000830F80000008711A01120088316DE
:1000E000870000008312AD0D0712031C7D28201627
:1000F0002008831687008128831220122008831687
:10010000870000008312A015200883168700831241
:10011000871D8828F80B6B2800008711A011200884
:10012000831687000000831220162008831687009C
:10013000000000008312A015200883168700831298
:10014000871DA028F8010000071A78148711A01154
:1001500020088316870083120712201220088316B6
:1001600087008312080020162008831687000000ED
:100170008312A0152008831687000000831207123F
:100180002012200883168700000083128711A01117
:100190002008831687003C308312AD0069202708B1
:1001A000AD0069202808AD006920201220088316C0
:1001B000870000008312A015200883168700831291
:1001C000871DE0280000E428000020162008831680
:1001D00087000000831208000830AE007708AF00E7
:1001E000201620088316870000008312A01520081F
:1001F000831687008312871DFB28071A0314071E26
:100200000310F80D0000A011200883168700831248
:100210008711AE0BF02820162008831687000000F7
:10022000831207122F0803191A2920122008831697
:10023000870083120000A015200883168700831210
:10024000871D202900008711A01120088316870030
:1002500000008312071220122008831687008312E1
:100260000800201620088316870000008312A015BE
:10027000200883168700000083120712201220082E
:1002800083168700000083128711A01120088316AF
:1002900087003C308312AD0069200330AD00692037
:1002A000201620088316870000008312A01520085E
:1002B0008316870000008312871D5C290712201215
:1002C000200883168700000083128711A0112008E0
:1002D000831687003D308312AD0069200130F7009E
:1002E000EC207808A8000130F700EC207808A7007F
:1002F0000130F700EC207808AC000130F700EC206A
:100300007808AB000130F700EC207808AA00F7016C
:10031000EC207808A900201220088316870000002E
:100320008312A0152008831687008312871D962943
:1003300000009A290000201620088316870000007C
:1003400083122808A2002708A1002A08A40029086F
:10035000A3002C08A6002B08A5008A110A12CC2A9B
:10036000AF010408AE002F10831B2F14A81FC02953
:10037000AE172E1EAE0AA709A809A70A0319A80AD4
:10038000280EF038AA00AA07E23EAB00323EAD00CC
:1003900028080F39AB07AB07AD07E93EAC00AC0747
:1003A000AC07270E0F39AC07AD07AC0DAD0DAD098D
:1003B000AD0D27080F39AD07AA0D0730A9000A3087
:1003C000AD07AC03031CE029AC07AB03031CE42915
:1003D000AB07AA03031CE829AA07A903031CEC29FD
:1003E00029308400831307302E052E1384032E0535
:1003F000031D012A2E1A840A2E1A012A2030F70022
:100400001E2A84072D30040203192E170008F70056
:10041000031D122A2E1B122A2E1A222AAE19122A64
:1004200020301D2AAE1F1A2A2D30F70084032E1308
:10043000AE131E2AAE152E123030F70777080C1EA9
:100440001F2A9900840A2E1F022A080027308400E0
:10045000831300080319392A0230F800F701F70B5B
:100460002F2AF80B2E2A9730F700F70B352A800B2E
:100470002C2A8A110A12F82A840183131F3083055B
:10048000713083168F000F08031787110C30031388
:100490009900A230980090308312980083160317B9
:1004A0000908C039890003131F129F120030031777
:1004B00088008312870188018901FF300313A0009F
:1004C000A101A201A301A401A501A601831603179E
:1004D0000908C039890003131F129F120030031747
:1004E0008800831203131F139F1383169F13831215
:1004F0001F149412A012200883168700831220165E
:100500002008831687008312A01120088316870015
:100510000130831294000030831694000108C7391B
:1005200008388100831290010030F80092000030FA
:1005300083169200831220152008831687008312E9
:10054000970183169B019C0101309D0083120317C4
:1005500087018801890104308D0000308F0003136A
:1005600021200D3003178D0000308F000313212050
:100570001B3003178D0000308F0003132120A701CB
:100580001830A800B3200130A700A801B320023022
:10059000A700A801B3203129003084002208A80058
:1005A0002108A700B02120300C1ED42A9900003069
:1005B00084002408A8002308A700B02120300C1EC6
:1005C000DF2A9900003084002608A8002508A7002B
:1005D000B02120300C1EEA2A99000A300C1EEE2AA7
:1005E00099000D300C1EF22A99006430A700262ACB
:0405F000CB2A6300AF
:04400E00F52CFF3F4F
:00000001FF
;PIC16F887
;CRC=2B66  CREATED="25-VIII-13 18:55"
